{
  "address": "0x45dd3901bfE1536DFCb7F62dFd9D1CfD44CD620A",
  "abi": [
    {
      "inputs": [],
      "stateMutability": "nonpayable",
      "type": "constructor"
    },
    {
      "anonymous": false,
      "inputs": [
        {
          "indexed": false,
          "internalType": "address",
          "name": "userAddr",
          "type": "address"
        },
        {
          "indexed": false,
          "internalType": "uint256",
          "name": "fee",
          "type": "uint256"
        },
        {
          "indexed": false,
          "internalType": "uint256",
          "name": "index",
          "type": "uint256"
        },
        {
          "indexed": false,
          "internalType": "uint256",
          "name": "day",
          "type": "uint256"
        },
        {
          "indexed": false,
          "internalType": "bytes3",
          "name": "bookingSlot",
          "type": "bytes3"
        }
      ],
      "name": "BookingSubmited",
      "type": "event"
    },
    {
      "anonymous": false,
      "inputs": [
        {
          "indexed": true,
          "internalType": "address",
          "name": "previousOwner",
          "type": "address"
        },
        {
          "indexed": true,
          "internalType": "address",
          "name": "newOwner",
          "type": "address"
        }
      ],
      "name": "OwnershipTransferred",
      "type": "event"
    },
    {
      "anonymous": false,
      "inputs": [
        {
          "indexed": false,
          "internalType": "address",
          "name": "providerAddr",
          "type": "address"
        }
      ],
      "name": "ProviderJoined",
      "type": "event"
    },
    {
      "anonymous": false,
      "inputs": [
        {
          "indexed": false,
          "internalType": "address",
          "name": "providerAddr",
          "type": "address"
        },
        {
          "indexed": false,
          "internalType": "string",
          "name": "location",
          "type": "string"
        },
        {
          "indexed": false,
          "internalType": "uint256",
          "name": "price",
          "type": "uint256"
        },
        {
          "indexed": false,
          "internalType": "uint256",
          "name": "amountStaked",
          "type": "uint256"
        }
      ],
      "name": "StationAdded",
      "type": "event"
    },
    {
      "anonymous": false,
      "inputs": [
        {
          "indexed": false,
          "internalType": "uint256",
          "name": "index",
          "type": "uint256"
        }
      ],
      "name": "StationDesactivated",
      "type": "event"
    },
    {
      "anonymous": false,
      "inputs": [
        {
          "indexed": false,
          "internalType": "address",
          "name": "userAddr",
          "type": "address"
        }
      ],
      "name": "UserJoined",
      "type": "event"
    },
    {
      "inputs": [
        {
          "internalType": "address",
          "name": "tokenAddr",
          "type": "address"
        }
      ],
      "name": "addAcceptedPayment",
      "outputs": [],
      "stateMutability": "nonpayable",
      "type": "function"
    },
    {
      "inputs": [
        {
          "internalType": "uint256",
          "name": "_pricePerHour",
          "type": "uint256"
        },
        {
          "internalType": "string",
          "name": "location",
          "type": "string"
        },
        {
          "internalType": "address",
          "name": "tokenAddr",
          "type": "address"
        }
      ],
      "name": "addStation",
      "outputs": [],
      "stateMutability": "nonpayable",
      "type": "function"
    },
    {
      "inputs": [
        {
          "internalType": "uint256",
          "name": "index",
          "type": "uint256"
        },
        {
          "internalType": "uint256",
          "name": "day",
          "type": "uint256"
        },
        {
          "internalType": "bytes3",
          "name": "time",
          "type": "bytes3"
        },
        {
          "internalType": "address",
          "name": "tokenAddr",
          "type": "address"
        }
      ],
      "name": "bookStation",
      "outputs": [],
      "stateMutability": "nonpayable",
      "type": "function"
    },
    {
      "inputs": [
        {
          "internalType": "uint256",
          "name": "index",
          "type": "uint256"
        }
      ],
      "name": "desactivateStation",
      "outputs": [],
      "stateMutability": "nonpayable",
      "type": "function"
    },
    {
      "inputs": [],
      "name": "getBlockTimestamp",
      "outputs": [
        {
          "internalType": "uint256",
          "name": "",
          "type": "uint256"
        }
      ],
      "stateMutability": "view",
      "type": "function"
    },
    {
      "inputs": [
        {
          "internalType": "uint256",
          "name": "index",
          "type": "uint256"
        }
      ],
      "name": "getStation",
      "outputs": [
        {
          "components": [
            {
              "internalType": "uint256",
              "name": "pricePerHour",
              "type": "uint256"
            },
            {
              "internalType": "string",
              "name": "location",
              "type": "string"
            },
            {
              "internalType": "address",
              "name": "owner",
              "type": "address"
            },
            {
              "internalType": "bytes3[8]",
              "name": "availability",
              "type": "bytes3[8]"
            },
            {
              "internalType": "bool",
              "name": "isActive",
              "type": "bool"
            }
          ],
          "internalType": "struct Station",
          "name": "station",
          "type": "tuple"
        }
      ],
      "stateMutability": "view",
      "type": "function"
    },
    {
      "inputs": [
        {
          "internalType": "address",
          "name": "",
          "type": "address"
        }
      ],
      "name": "isAcceptedPayment",
      "outputs": [
        {
          "internalType": "bool",
          "name": "",
          "type": "bool"
        }
      ],
      "stateMutability": "view",
      "type": "function"
    },
    {
      "inputs": [
        {
          "internalType": "address",
          "name": "",
          "type": "address"
        }
      ],
      "name": "isMember",
      "outputs": [
        {
          "internalType": "bool",
          "name": "",
          "type": "bool"
        }
      ],
      "stateMutability": "view",
      "type": "function"
    },
    {
      "inputs": [
        {
          "internalType": "address",
          "name": "",
          "type": "address"
        }
      ],
      "name": "isProvider",
      "outputs": [
        {
          "internalType": "bool",
          "name": "",
          "type": "bool"
        }
      ],
      "stateMutability": "view",
      "type": "function"
    },
    {
      "inputs": [],
      "name": "joinAsProvider",
      "outputs": [],
      "stateMutability": "nonpayable",
      "type": "function"
    },
    {
      "inputs": [],
      "name": "joinAsUser",
      "outputs": [],
      "stateMutability": "nonpayable",
      "type": "function"
    },
    {
      "inputs": [],
      "name": "owner",
      "outputs": [
        {
          "internalType": "address",
          "name": "",
          "type": "address"
        }
      ],
      "stateMutability": "view",
      "type": "function"
    },
    {
      "inputs": [],
      "name": "renounceOwnership",
      "outputs": [],
      "stateMutability": "nonpayable",
      "type": "function"
    },
    {
      "inputs": [
        {
          "internalType": "address",
          "name": "",
          "type": "address"
        },
        {
          "internalType": "address",
          "name": "",
          "type": "address"
        }
      ],
      "name": "stakes",
      "outputs": [
        {
          "internalType": "uint256",
          "name": "",
          "type": "uint256"
        }
      ],
      "stateMutability": "view",
      "type": "function"
    },
    {
      "inputs": [],
      "name": "stationIDs",
      "outputs": [
        {
          "internalType": "uint256",
          "name": "_value",
          "type": "uint256"
        }
      ],
      "stateMutability": "view",
      "type": "function"
    },
    {
      "inputs": [
        {
          "internalType": "uint256",
          "name": "",
          "type": "uint256"
        }
      ],
      "name": "station_time_lower_bound",
      "outputs": [
        {
          "internalType": "uint256",
          "name": "",
          "type": "uint256"
        }
      ],
      "stateMutability": "view",
      "type": "function"
    },
    {
      "inputs": [
        {
          "internalType": "uint256",
          "name": "",
          "type": "uint256"
        }
      ],
      "name": "stationsMap",
      "outputs": [
        {
          "internalType": "uint256",
          "name": "pricePerHour",
          "type": "uint256"
        },
        {
          "internalType": "string",
          "name": "location",
          "type": "string"
        },
        {
          "internalType": "address",
          "name": "owner",
          "type": "address"
        },
        {
          "internalType": "bool",
          "name": "isActive",
          "type": "bool"
        }
      ],
      "stateMutability": "view",
      "type": "function"
    },
    {
      "inputs": [
        {
          "internalType": "address",
          "name": "newOwner",
          "type": "address"
        }
      ],
      "name": "transferOwnership",
      "outputs": [],
      "stateMutability": "nonpayable",
      "type": "function"
    }
  ],
  "transactionHash": "0x1b77c92d07b370a6a1623774f0a8d79801943eadd970bb6cfff334a136918c88",
  "args": [],
  "numDeployments": 1,
  "solcInputHash": "e929850cbbe21fe4a0d624af94c7ba41",
  "bytecode": "0x60806040526201518060075534801561001757600080fd5b506100213361002a565b4260085561007a565b600080546001600160a01b038381166001600160a01b0319831681178455604051919092169283917f8be0079c531659141344cd1fd0a4f28419497f9722a3daafe3b4186f6b6457e09190a35050565b61180e806100896000396000f3fe608060405234801561001057600080fd5b50600436106101165760003560e01c806394ec766b116100a2578063a230c52411610071578063a230c52414610254578063a4e47b6614610277578063b869813f146102a2578063e569e5a6146102c2578063f2fde38b146102ca57600080fd5b806394ec766b146102035780639590a542146102165780639f50da311461021e578063a1403ec91461024157600080fd5b80636b074a07116100e95780636b074a0714610184578063715018a6146101b7578063796b89b9146101bf5780638da5cb5b146101c5578063903dfb60146101e057600080fd5b8063106e054d1461011b5780631e5c502e146101445780632c4358071461015c57806338830d2714610171575b600080fd5b61012e61012936600461140e565b6102dd565b60405161013b9190611619565b60405180910390f35b60095461014e9081565b60405190815260200161013b565b61016f61016a3660046114ae565b61042c565b005b61016f61017f36600461140e565b610a9c565b6101a76101923660046113a2565b60026020526000908152604090205460ff1681565b604051901515815260200161013b565b61016f610b99565b4261014e565b6000546040516001600160a01b03909116815260200161013b565b6101f36101ee36600461140e565b610bcf565b60405161013b94939291906116a1565b61016f610211366004611426565b610c8d565b61016f610faa565b6101a761022c3660046113a2565b60066020526000908152604090205460ff1681565b61016f61024f3660046113a2565b610ffc565b6101a76102623660046113a2565b60016020526000908152604090205460ff1681565b61014e6102853660046113bc565b600560209081526000928352604080842090915290825290205481565b61014e6102b036600461140e565b60046020526000908152604090205481565b61016f61104a565b61016f6102d83660046113a2565b6110f4565b6102e56111fe565b600360008381526020019081526020016000206040518060a00160405290816000820154815260200160018201805461031d9061173d565b80601f01602080910402602001604051908101604052809291908181526020018280546103499061173d565b80156103965780601f1061036b57610100808354040283529160200191610396565b820191906000526020600020905b81548152906001019060200180831161037957829003601f168201915b505050918352505060028201546001600160a01b031660208201526040805161010081018083529190920191906003840190600890826000855b82829054906101000a900460e81b6001600160e81b031916815260200190600301906020826002010492830192600103820291508084116103d0575050509284525050506004919091015460ff16151560209091015292915050565b3360009081526001602052604090205460ff166104905760405162461bcd60e51b815260206004820152601e60248201527f546869732046656174757265206973206f6e6c7920666f72207573657273000060448201526064015b60405180910390fd5b60095484111580156104a25750600084115b6104ee5760405162461bcd60e51b815260206004820152601d60248201527f696e64657820666f7220626f6f6b696e67206e6f7420616c6c6f7765640000006044820152606401610487565b6001600160e81b031982166105455760405162461bcd60e51b815260206004820152601c60248201527f6e6577207363686564756c652063616e6e6f7420626520656d707479000000006044820152606401610487565b6000600360008681526020019081526020016000206040518060a00160405290816000820154815260200160018201805461057f9061173d565b80601f01602080910402602001604051908101604052809291908181526020018280546105ab9061173d565b80156105f85780601f106105cd576101008083540402835291602001916105f8565b820191906000526020600020905b8154815290600101906020018083116105db57829003601f168201915b505050918352505060028201546001600160a01b031660208201526040805161010081018083529190920191906003840190600890826000855b82829054906101000a900460e81b6001600160e81b03191681526020019060030190602082600201049283019260010382029150808411610632575050509284525050506004919091015460ff16151560209091015260808101519091506106dc5760405162461bcd60e51b815260206004820152601d60248201527f43757272656e742053746174696f6e206973206e6f74206163746976650000006044820152606401610487565b80516001600160a01b03831660009081526006602052604090205460ff166107465760405162461bcd60e51b815260206004820152601a60248201527f7468697320746f6b656e206973206e6f742061636365707465640000000000006044820152606401610487565b6040516323b872dd60e01b8152336004820152306024820152604481018290526001600160a01b038416906323b872dd90606401602060405180830381600087803b15801561079457600080fd5b505af11580156107a8573d6000803e3d6000fd5b505050506040513d601f19601f820116820180604052508101906107cc91906113ee565b506000868152600460205260408120548691906107e99042611726565b90506007548111156108c557600061080c6007548361118f90919063ffffffff16565b9050806007811061085557506007610824828261118f565b6007546108319190611707565b60008b8152600460205260408120805490919061084f9084906116db565b90915550505b60015b818160ff16116108c15761086d6001866116db565b9450600060e81b87606001518260ff166008811061089b57634e487b7160e01b600052603260045260246000fd5b6001600160e81b03199092166020929092020152806108b981611778565b915050610858565b5050505b6108d0600783611798565b91506000846060015183600881106108f857634e487b7160e01b600052603260045260246000fd5b6020020151871690506001600160e81b03198116156109515760405162461bcd60e51b81526020600482015260156024820152746e6577207363686564756c65206f7665726c61707360581b6044820152606401610487565b8460600151836008811061097557634e487b7160e01b600052603260045260246000fd5b60200201518717856060015184600881106109a057634e487b7160e01b600052603260045260246000fd5b6001600160e81b03199092166020928302919091015260008a815260038252604090208651815586820151805188936109e092600185019291019061123c565b5060408201516002820180546001600160a01b0319166001600160a01b039092169190911790556060820151610a1c90600383019060086112c0565b506080918201516004909101805460ff191691151591909117905560408051338152602081018790529081018b9052606081018590526001600160e81b03198916918101919091527ffa7f8314af3dfdbd1bfcbc5ee1753f76a068b1809f86b5df5b88654d4f2813719060a00160405180910390a1505050505050505050565b3360009081526002602052604090205460ff16610acb5760405162461bcd60e51b8152600401610487906115c6565b6000818152600360205260409020600201546001600160a01b03163314610b435760405162461bcd60e51b815260206004820152602660248201527f43616c6c6572206973206e6f7420746865206f776e6572206f662074686520736044820152653a30ba34b7b760d11b6064820152608401610487565b60008181526003602052604090819020600401805460ff19169055517f857ba9c45da680209d221b512baefeb770735eba13065c9ba811c1fa6c852dad90610b8e9083815260200190565b60405180910390a150565b6000546001600160a01b03163314610bc35760405162461bcd60e51b815260040161048790611591565b610bcd60006111a2565b565b60036020526000908152604090208054600182018054919291610bf19061173d565b80601f0160208091040260200160405190810160405280929190818152602001828054610c1d9061173d565b8015610c6a5780601f10610c3f57610100808354040283529160200191610c6a565b820191906000526020600020905b815481529060010190602001808311610c4d57829003601f168201915b50505050600283015460049093015491926001600160a01b03169160ff16905084565b3360009081526002602052604090205460ff16610cbc5760405162461bcd60e51b8152600401610487906115c6565b6001600160a01b03811660009081526006602052604090205460ff16610d245760405162461bcd60e51b815260206004820152601960248201527f7468697320746f6b656e206973206e6f7420616c6c6f776564000000000000006044820152606401610487565b6000610d3c6008610d368760186111f2565b906111f2565b6040516323b872dd60e01b8152336004820152306024820152604481018290529091506001600160a01b038316906323b872dd90606401602060405180830381600087803b158015610d8d57600080fd5b505af1158015610da1573d6000803e3d6000fd5b505050506040513d601f19601f82011682018060405250810190610dc591906113ee565b506001600160a01b038216600090815260056020908152604080832033845290915281208054839290610df99084906116db565b909155505060098054600101905560006040518060a0016040528087815260200186868080601f0160208091040260200160405190810160405280939291908181526020018383808284376000920182905250938552505033602080850191909152604080516101008101825284815291820184905281810184905260608083018590526080830185905260a0830185905260c0830185905260e0830185905290850191909152600193019290925260085492935060049150610ebb60095490565b8152602001908152602001600020819055508060036000610edb60095490565b8152602080820192909252604001600020825181558282015180519192610f0a9260018501929091019061123c565b5060408201516002820180546001600160a01b0319166001600160a01b039092169190911790556060820151610f4690600383019060086112c0565b50608091909101516004909101805460ff19169115159190911790556040517f3f279c5f92c9b780ba72ba8540eb91e27f49a789e9954660bd373dc4828306e590610f9a903390889088908b908890611541565b60405180910390a1505050505050565b33600081815260016020818152604092839020805460ff191690921790915590519182527f4028b92b6812cf0ad64ad14283561bd81eaf1d9e718a6eabcfd40016f83bd1e991015b60405180910390a1565b6000546001600160a01b031633146110265760405162461bcd60e51b815260040161048790611591565b6001600160a01b03166000908152600660205260409020805460ff19166001179055565b3360009081526001602052604090205460ff166110a95760405162461bcd60e51b815260206004820152601e60248201527f546869732046656174757265206973206f6e6c7920666f7220757365727300006044820152606401610487565b33600081815260026020908152604091829020805460ff1916600117905590519182527f17e59d09e97aca8953388600495a0ba17a6c0caef6d4e7a595c1921ecaadc4559101610ff2565b6000546001600160a01b0316331461111e5760405162461bcd60e51b815260040161048790611591565b6001600160a01b0381166111835760405162461bcd60e51b815260206004820152602660248201527f4f776e61626c653a206e6577206f776e657220697320746865207a65726f206160448201526564647265737360d01b6064820152608401610487565b61118c816111a2565b50565b600061119b82846116f3565b9392505050565b600080546001600160a01b038381166001600160a01b0319831681178455604051919092169283917f8be0079c531659141344cd1fd0a4f28419497f9722a3daafe3b4186f6b6457e09190a35050565b600061119b8284611707565b6040518060a00160405280600081526020016060815260200160006001600160a01b0316815260200161122f611352565b8152600060209091015290565b8280546112489061173d565b90600052602060002090601f01602090048101928261126a57600085556112b0565b82601f1061128357805160ff19168380011785556112b0565b828001600101855582156112b0579182015b828111156112b0578251825591602001919060010190611295565b506112bc929150611371565b5090565b6001830191839082156112b05791602002820160005b8382111561131657835183826101000a81548162ffffff021916908360e81c021790555092602001926003016020816002010492830192600103026112d6565b80156113455782816101000a81549062ffffff0219169055600301602081600201049283019260010302611316565b50506112bc929150611371565b6040518061010001604052806008906020820280368337509192915050565b5b808211156112bc5760008155600101611372565b80356001600160a01b038116811461139d57600080fd5b919050565b6000602082840312156113b3578081fd5b61119b82611386565b600080604083850312156113ce578081fd5b6113d783611386565b91506113e560208401611386565b90509250929050565b6000602082840312156113ff578081fd5b8151801515811461119b578182fd5b60006020828403121561141f578081fd5b5035919050565b6000806000806060858703121561143b578182fd5b84359350602085013567ffffffffffffffff80821115611459578384fd5b818701915087601f83011261146c578384fd5b81358181111561147a578485fd5b88602082850101111561148b578485fd5b6020830195508094505050506114a360408601611386565b905092959194509250565b600080600080608085870312156114c3578384fd5b843593506020850135925060408501356001600160e81b0319811681146114e8578283fd5b91506114a360608601611386565b60008151808452815b8181101561151b576020818501810151868301820152016114ff565b8181111561152c5782602083870101525b50601f01601f19169290920160200192915050565b6001600160a01b03861681526080602082018190528101849052838560a083013760008060a0868401015260a0601f19601f87011683010190508360408301528260608301529695505050505050565b6020808252818101527f4f776e61626c653a2063616c6c6572206973206e6f7420746865206f776e6572604082015260600190565b60208082526033908201527f546f206265636f6d6520612070726f766964657220796f75206e65656420746f6040820152721031329030903ab9b2b91037b3102537b6a2ab60691b606082015260800190565b60006020808352835181840152808401516101808060408601526116416101a08601836114f6565b915060018060a01b036040870151166060860152606086015160808601855b60088110156116875782516001600160e81b03191682529185019190850190600101611660565b505050608086015180151586830152925050949350505050565b8481526080602082015260006116ba60808301866114f6565b6001600160a01b039490941660408301525090151560609091015292915050565b600082198211156116ee576116ee6117ac565b500190565b600082611702576117026117c2565b500490565b6000816000190483118215151615611721576117216117ac565b500290565b600082821015611738576117386117ac565b500390565b600181811c9082168061175157607f821691505b6020821081141561177257634e487b7160e01b600052602260045260246000fd5b50919050565b600060ff821660ff81141561178f5761178f6117ac565b60010192915050565b6000826117a7576117a76117c2565b500690565b634e487b7160e01b600052601160045260246000fd5b634e487b7160e01b600052601260045260246000fdfea26469706673582212209a8413dc8a63e5b494c8218bee1122132e6da53be03d3431b7481c859fc4060f64736f6c63430008040033",
  "devdoc": {
    "kind": "dev",
    "methods": {
      "addStation(uint256,string,address)": {
        "details": "** @note   pricePerHour : price x hour of current station location : must be passed in coordinates or other relevant way tokenAddr : token which is used to perform the transaction , must be an approved token*"
      },
      "bookStation(uint256,uint256,bytes3,address)": {
        "details": "** @note   index : index of the station ( starts from 1 day : index of day starting from today. if today is 15 and we want for 16 we must write 1, 0 is not allowed time : pass in bytes 24 slots ( hrs ) i.e: 0010 0001 0000 0000 => we book for hours 3 and 8 parse into hex : 0x2100 => this is the input tokenAddr : token which is used to perform the transaction , must be an approved token*"
      },
      "getBlockTimestamp()": {
        "details": "dummy call for usage in the testing*"
      },
      "owner()": {
        "details": "Returns the address of the current owner."
      },
      "renounceOwnership()": {
        "details": "Leaves the contract without owner. It will not be possible to call `onlyOwner` functions anymore. Can only be called by the current owner. NOTE: Renouncing ownership will leave the contract without an owner, thereby removing any functionality that is only available to the owner."
      },
      "transferOwnership(address)": {
        "details": "Transfers ownership of the contract to a new account (`newOwner`). Can only be called by the current owner."
      }
    },
    "version": 1
  },
  "userdoc": {
    "kind": "user",
    "methods": {},
    "version": 1
  },
  "storageLayout": {
    "storage": [
      {
        "astId": 7,
        "contract": "contracts/JomEV.sol:JomEV",
        "label": "_owner",
        "offset": 0,
        "slot": "0",
        "type": "t_address"
      },
      {
        "astId": 1326,
        "contract": "contracts/JomEV.sol:JomEV",
        "label": "isMember",
        "offset": 0,
        "slot": "1",
        "type": "t_mapping(t_address,t_bool)"
      },
      {
        "astId": 1330,
        "contract": "contracts/JomEV.sol:JomEV",
        "label": "isProvider",
        "offset": 0,
        "slot": "2",
        "type": "t_mapping(t_address,t_bool)"
      },
      {
        "astId": 1335,
        "contract": "contracts/JomEV.sol:JomEV",
        "label": "stationsMap",
        "offset": 0,
        "slot": "3",
        "type": "t_mapping(t_uint256,t_struct(Station)1279_storage)"
      },
      {
        "astId": 1339,
        "contract": "contracts/JomEV.sol:JomEV",
        "label": "station_time_lower_bound",
        "offset": 0,
        "slot": "4",
        "type": "t_mapping(t_uint256,t_uint256)"
      },
      {
        "astId": 1345,
        "contract": "contracts/JomEV.sol:JomEV",
        "label": "stakes",
        "offset": 0,
        "slot": "5",
        "type": "t_mapping(t_address,t_mapping(t_address,t_uint256))"
      },
      {
        "astId": 1349,
        "contract": "contracts/JomEV.sol:JomEV",
        "label": "isAcceptedPayment",
        "offset": 0,
        "slot": "6",
        "type": "t_mapping(t_address,t_bool)"
      },
      {
        "astId": 1352,
        "contract": "contracts/JomEV.sol:JomEV",
        "label": "TIMESTAMP_PER_DAY",
        "offset": 0,
        "slot": "7",
        "type": "t_uint256"
      },
      {
        "astId": 1354,
        "contract": "contracts/JomEV.sol:JomEV",
        "label": "contract_time_lower_bound",
        "offset": 0,
        "slot": "8",
        "type": "t_uint256"
      },
      {
        "astId": 1357,
        "contract": "contracts/JomEV.sol:JomEV",
        "label": "stationIDs",
        "offset": 0,
        "slot": "9",
        "type": "t_struct(Counter)821_storage"
      }
    ],
    "types": {
      "t_address": {
        "encoding": "inplace",
        "label": "address",
        "numberOfBytes": "20"
      },
      "t_array(t_bytes3)8_storage": {
        "base": "t_bytes3",
        "encoding": "inplace",
        "label": "bytes3[8]",
        "numberOfBytes": "32"
      },
      "t_bool": {
        "encoding": "inplace",
        "label": "bool",
        "numberOfBytes": "1"
      },
      "t_bytes3": {
        "encoding": "inplace",
        "label": "bytes3",
        "numberOfBytes": "3"
      },
      "t_mapping(t_address,t_bool)": {
        "encoding": "mapping",
        "key": "t_address",
        "label": "mapping(address => bool)",
        "numberOfBytes": "32",
        "value": "t_bool"
      },
      "t_mapping(t_address,t_mapping(t_address,t_uint256))": {
        "encoding": "mapping",
        "key": "t_address",
        "label": "mapping(address => mapping(address => uint256))",
        "numberOfBytes": "32",
        "value": "t_mapping(t_address,t_uint256)"
      },
      "t_mapping(t_address,t_uint256)": {
        "encoding": "mapping",
        "key": "t_address",
        "label": "mapping(address => uint256)",
        "numberOfBytes": "32",
        "value": "t_uint256"
      },
      "t_mapping(t_uint256,t_struct(Station)1279_storage)": {
        "encoding": "mapping",
        "key": "t_uint256",
        "label": "mapping(uint256 => struct Station)",
        "numberOfBytes": "32",
        "value": "t_struct(Station)1279_storage"
      },
      "t_mapping(t_uint256,t_uint256)": {
        "encoding": "mapping",
        "key": "t_uint256",
        "label": "mapping(uint256 => uint256)",
        "numberOfBytes": "32",
        "value": "t_uint256"
      },
      "t_string_storage": {
        "encoding": "bytes",
        "label": "string",
        "numberOfBytes": "32"
      },
      "t_struct(Counter)821_storage": {
        "encoding": "inplace",
        "label": "struct Counters.Counter",
        "members": [
          {
            "astId": 820,
            "contract": "contracts/JomEV.sol:JomEV",
            "label": "_value",
            "offset": 0,
            "slot": "0",
            "type": "t_uint256"
          }
        ],
        "numberOfBytes": "32"
      },
      "t_struct(Station)1279_storage": {
        "encoding": "inplace",
        "label": "struct Station",
        "members": [
          {
            "astId": 1268,
            "contract": "contracts/JomEV.sol:JomEV",
            "label": "pricePerHour",
            "offset": 0,
            "slot": "0",
            "type": "t_uint256"
          },
          {
            "astId": 1270,
            "contract": "contracts/JomEV.sol:JomEV",
            "label": "location",
            "offset": 0,
            "slot": "1",
            "type": "t_string_storage"
          },
          {
            "astId": 1272,
            "contract": "contracts/JomEV.sol:JomEV",
            "label": "owner",
            "offset": 0,
            "slot": "2",
            "type": "t_address"
          },
          {
            "astId": 1276,
            "contract": "contracts/JomEV.sol:JomEV",
            "label": "availability",
            "offset": 0,
            "slot": "3",
            "type": "t_array(t_bytes3)8_storage"
          },
          {
            "astId": 1278,
            "contract": "contracts/JomEV.sol:JomEV",
            "label": "isActive",
            "offset": 0,
            "slot": "4",
            "type": "t_bool"
          }
        ],
        "numberOfBytes": "160"
      },
      "t_uint256": {
        "encoding": "inplace",
        "label": "uint256",
        "numberOfBytes": "32"
      }
    }
  }
}