{
  "address": "0xb1aA3CbE1bf99C3A27ecd251341817A139f1d938",
  "abi": [
    {
      "inputs": [],
      "stateMutability": "nonpayable",
      "type": "constructor"
    },
    {
      "anonymous": false,
      "inputs": [
        {
          "indexed": false,
          "internalType": "uint256",
          "name": "chargingPointIndex",
          "type": "uint256"
        },
        {
          "indexed": false,
          "internalType": "uint256",
          "name": "connectorIndex",
          "type": "uint256"
        },
        {
          "indexed": false,
          "internalType": "uint256",
          "name": "fee",
          "type": "uint256"
        },
        {
          "indexed": false,
          "internalType": "uint256",
          "name": "day",
          "type": "uint256"
        },
        {
          "indexed": false,
          "internalType": "bytes3",
          "name": "bookingSlot",
          "type": "bytes3"
        }
      ],
      "name": "BookingSubmited",
      "type": "event"
    },
    {
      "anonymous": false,
      "inputs": [
        {
          "indexed": false,
          "internalType": "uint256",
          "name": "index",
          "type": "uint256"
        },
        {
          "indexed": false,
          "internalType": "string",
          "name": "cid",
          "type": "string"
        },
        {
          "indexed": false,
          "internalType": "uint256",
          "name": "price",
          "type": "uint256"
        },
        {
          "indexed": false,
          "internalType": "uint256",
          "name": "amountStaked",
          "type": "uint256"
        }
      ],
      "name": "ChargingPointAdded",
      "type": "event"
    },
    {
      "anonymous": false,
      "inputs": [
        {
          "indexed": false,
          "internalType": "uint256",
          "name": "charginPointIndex",
          "type": "uint256"
        },
        {
          "indexed": false,
          "internalType": "uint256",
          "name": "connectorIndex",
          "type": "uint256"
        }
      ],
      "name": "ConnectorDesactivated",
      "type": "event"
    },
    {
      "anonymous": false,
      "inputs": [
        {
          "indexed": true,
          "internalType": "address",
          "name": "previousOwner",
          "type": "address"
        },
        {
          "indexed": true,
          "internalType": "address",
          "name": "newOwner",
          "type": "address"
        }
      ],
      "name": "OwnershipTransferred",
      "type": "event"
    },
    {
      "anonymous": false,
      "inputs": [
        {
          "indexed": false,
          "internalType": "address",
          "name": "providerAddr",
          "type": "address"
        }
      ],
      "name": "ProviderJoined",
      "type": "event"
    },
    {
      "anonymous": false,
      "inputs": [
        {
          "indexed": false,
          "internalType": "uint256",
          "name": "chargingPointId",
          "type": "uint256"
        },
        {
          "indexed": false,
          "internalType": "uint256",
          "name": "connectorIndex",
          "type": "uint256"
        },
        {
          "indexed": false,
          "internalType": "uint256",
          "name": "index",
          "type": "uint256"
        },
        {
          "indexed": false,
          "internalType": "string",
          "name": "cid",
          "type": "string"
        },
        {
          "indexed": false,
          "internalType": "uint256",
          "name": "price",
          "type": "uint256"
        }
      ],
      "name": "StationAdded",
      "type": "event"
    },
    {
      "anonymous": false,
      "inputs": [
        {
          "indexed": false,
          "internalType": "address",
          "name": "userAddr",
          "type": "address"
        }
      ],
      "name": "UserJoined",
      "type": "event"
    },
    {
      "inputs": [],
      "name": "ChargingPointIDs",
      "outputs": [
        {
          "internalType": "uint256",
          "name": "_value",
          "type": "uint256"
        }
      ],
      "stateMutability": "view",
      "type": "function"
    },
    {
      "inputs": [
        {
          "internalType": "uint256",
          "name": "",
          "type": "uint256"
        },
        {
          "internalType": "uint256",
          "name": "",
          "type": "uint256"
        }
      ],
      "name": "ChargingPointToStation",
      "outputs": [
        {
          "internalType": "uint256",
          "name": "",
          "type": "uint256"
        }
      ],
      "stateMutability": "view",
      "type": "function"
    },
    {
      "inputs": [
        {
          "internalType": "uint256",
          "name": "",
          "type": "uint256"
        }
      ],
      "name": "StationCounterInChargingPoint",
      "outputs": [
        {
          "internalType": "uint256",
          "name": "",
          "type": "uint256"
        }
      ],
      "stateMutability": "view",
      "type": "function"
    },
    {
      "inputs": [
        {
          "internalType": "address",
          "name": "tokenAddr",
          "type": "address"
        }
      ],
      "name": "addAcceptedPayment",
      "outputs": [],
      "stateMutability": "nonpayable",
      "type": "function"
    },
    {
      "inputs": [
        {
          "internalType": "uint256",
          "name": "_pricePerHour",
          "type": "uint256"
        },
        {
          "internalType": "string",
          "name": "cid",
          "type": "string"
        },
        {
          "internalType": "address",
          "name": "tokenAddr",
          "type": "address"
        },
        {
          "internalType": "uint256",
          "name": "nConnectors",
          "type": "uint256"
        }
      ],
      "name": "addChargingPoint",
      "outputs": [],
      "stateMutability": "nonpayable",
      "type": "function"
    },
    {
      "inputs": [
        {
          "internalType": "uint256",
          "name": "chargingPointId",
          "type": "uint256"
        },
        {
          "internalType": "uint256",
          "name": "connectorIndex",
          "type": "uint256"
        },
        {
          "internalType": "uint256",
          "name": "day",
          "type": "uint256"
        },
        {
          "internalType": "bytes3",
          "name": "time",
          "type": "bytes3"
        },
        {
          "internalType": "address",
          "name": "tokenAddr",
          "type": "address"
        }
      ],
      "name": "bookStation",
      "outputs": [],
      "stateMutability": "nonpayable",
      "type": "function"
    },
    {
      "inputs": [],
      "name": "bookingIDs",
      "outputs": [
        {
          "internalType": "uint256",
          "name": "_value",
          "type": "uint256"
        }
      ],
      "stateMutability": "view",
      "type": "function"
    },
    {
      "inputs": [
        {
          "internalType": "uint256",
          "name": "chargingPointIndex",
          "type": "uint256"
        },
        {
          "internalType": "uint256",
          "name": "connectorIndex",
          "type": "uint256"
        }
      ],
      "name": "desactivateConnector",
      "outputs": [],
      "stateMutability": "nonpayable",
      "type": "function"
    },
    {
      "inputs": [],
      "name": "getBlockTimestamp",
      "outputs": [
        {
          "internalType": "uint256",
          "name": "",
          "type": "uint256"
        }
      ],
      "stateMutability": "view",
      "type": "function"
    },
    {
      "inputs": [
        {
          "internalType": "uint256",
          "name": "index",
          "type": "uint256"
        }
      ],
      "name": "getStation",
      "outputs": [
        {
          "components": [
            {
              "internalType": "uint256",
              "name": "pricePerHour",
              "type": "uint256"
            },
            {
              "internalType": "string",
              "name": "location",
              "type": "string"
            },
            {
              "internalType": "address",
              "name": "owner",
              "type": "address"
            },
            {
              "internalType": "bytes3[8]",
              "name": "availability",
              "type": "bytes3[8]"
            },
            {
              "internalType": "bool",
              "name": "isActive",
              "type": "bool"
            }
          ],
          "internalType": "struct Station",
          "name": "station",
          "type": "tuple"
        }
      ],
      "stateMutability": "view",
      "type": "function"
    },
    {
      "inputs": [
        {
          "internalType": "address",
          "name": "",
          "type": "address"
        }
      ],
      "name": "isAcceptedPayment",
      "outputs": [
        {
          "internalType": "bool",
          "name": "",
          "type": "bool"
        }
      ],
      "stateMutability": "view",
      "type": "function"
    },
    {
      "inputs": [
        {
          "internalType": "address",
          "name": "",
          "type": "address"
        }
      ],
      "name": "isMember",
      "outputs": [
        {
          "internalType": "bool",
          "name": "",
          "type": "bool"
        }
      ],
      "stateMutability": "view",
      "type": "function"
    },
    {
      "inputs": [
        {
          "internalType": "address",
          "name": "",
          "type": "address"
        }
      ],
      "name": "isProvider",
      "outputs": [
        {
          "internalType": "bool",
          "name": "",
          "type": "bool"
        }
      ],
      "stateMutability": "view",
      "type": "function"
    },
    {
      "inputs": [],
      "name": "joinAsProvider",
      "outputs": [],
      "stateMutability": "nonpayable",
      "type": "function"
    },
    {
      "inputs": [],
      "name": "joinAsUser",
      "outputs": [],
      "stateMutability": "nonpayable",
      "type": "function"
    },
    {
      "inputs": [],
      "name": "owner",
      "outputs": [
        {
          "internalType": "address",
          "name": "",
          "type": "address"
        }
      ],
      "stateMutability": "view",
      "type": "function"
    },
    {
      "inputs": [],
      "name": "renounceOwnership",
      "outputs": [],
      "stateMutability": "nonpayable",
      "type": "function"
    },
    {
      "inputs": [
        {
          "internalType": "address",
          "name": "",
          "type": "address"
        },
        {
          "internalType": "address",
          "name": "",
          "type": "address"
        }
      ],
      "name": "stakes",
      "outputs": [
        {
          "internalType": "uint256",
          "name": "",
          "type": "uint256"
        }
      ],
      "stateMutability": "view",
      "type": "function"
    },
    {
      "inputs": [],
      "name": "stationIDs",
      "outputs": [
        {
          "internalType": "uint256",
          "name": "_value",
          "type": "uint256"
        }
      ],
      "stateMutability": "view",
      "type": "function"
    },
    {
      "inputs": [
        {
          "internalType": "uint256",
          "name": "",
          "type": "uint256"
        }
      ],
      "name": "station_time_lower_bound",
      "outputs": [
        {
          "internalType": "uint256",
          "name": "",
          "type": "uint256"
        }
      ],
      "stateMutability": "view",
      "type": "function"
    },
    {
      "inputs": [
        {
          "internalType": "uint256",
          "name": "",
          "type": "uint256"
        }
      ],
      "name": "stationsMap",
      "outputs": [
        {
          "internalType": "uint256",
          "name": "pricePerHour",
          "type": "uint256"
        },
        {
          "internalType": "string",
          "name": "location",
          "type": "string"
        },
        {
          "internalType": "address",
          "name": "owner",
          "type": "address"
        },
        {
          "internalType": "bool",
          "name": "isActive",
          "type": "bool"
        }
      ],
      "stateMutability": "view",
      "type": "function"
    },
    {
      "inputs": [
        {
          "internalType": "address",
          "name": "newOwner",
          "type": "address"
        }
      ],
      "name": "transferOwnership",
      "outputs": [],
      "stateMutability": "nonpayable",
      "type": "function"
    }
  ],
  "transactionHash": "0x43cd1847d5f01def10ad2eea0e454699561271c9d7b740af23a555eb6c23ba77",
  "args": [],
  "numDeployments": 2,
  "solcInputHash": "00517937a984b8cd785204d1573850a3",
  "bytecode": "0x60806040526201518060095534801561001757600080fd5b506100213361002a565b42600a5561007a565b600080546001600160a01b038381166001600160a01b0319831681178455604051919092169283917f8be0079c531659141344cd1fd0a4f28419497f9722a3daafe3b4186f6b6457e09190a35050565b611a71806100896000396000f3fe608060405234801561001057600080fd5b50600436106101425760003560e01c80639590a542116100b8578063a4e47b661161007c578063a4e47b66146102e5578063b869813f14610310578063dad03ec014610330578063e32819c51461033a578063e569e5a61461034d578063f2fde38b1461035557600080fd5b80639590a542146102595780639ab30426146102615780639f50da311461028c578063a1403ec9146102af578063a230c524146102c257600080fd5b80636b074a071161010a5780636b074a07146101c7578063715018a6146101fa578063796b89b9146102025780638da5cb5b14610208578063903dfb601461022357806394ba53dc1461024657600080fd5b8063106e054d146101475780631e5c502e14610170578063449efb25146101885780634c428def1461019d57806365a6ec7e146101a7575b600080fd5b61015a6101553660046115d8565b610368565b60405161016791906117fa565b60405180910390f35b600b5461017a9081565b604051908152602001610167565b61019b610196366004611680565b6104b7565b005b600c5461017a9081565b61017a6101b53660046115d8565b60086020526000908152604090205481565b6101ea6101d536600461156c565b60026020526000908152604090205460ff1681565b6040519015158152602001610167565b61019b6105e5565b4261017a565b6000546040516001600160a01b039091168152602001610167565b6102366102313660046115d8565b61061b565b60405161016794939291906118b0565b61019b6102543660046116a1565b6106d9565b61019b610d6e565b61017a61026f366004611680565b600760209081526000928352604080842090915290825290205481565b6101ea61029a36600461156c565b60066020526000908152604090205460ff1681565b61019b6102bd36600461156c565b610dc0565b6101ea6102d036600461156c565b60016020526000908152604090205460ff1681565b61017a6102f3366004611586565b600560209081526000928352604080842090915290825290205481565b61017a61031e3660046115d8565b60046020526000908152604090205481565b600d5461017a9081565b61019b6103483660046115f0565b610e0e565b61019b611011565b61019b61036336600461156c565b6110bb565b6103706113c8565b600360008381526020019081526020016000206040518060a0016040529081600082015481526020016001820180546103a890611985565b80601f01602080910402602001604051908101604052809291908181526020018280546103d490611985565b80156104215780601f106103f657610100808354040283529160200191610421565b820191906000526020600020905b81548152906001019060200180831161040457829003601f168201915b505050918352505060028201546001600160a01b031660208201526040805161010081018083529190920191906003840190600890826000855b82829054906101000a900460e81b6001600160e81b0319168152602001906003019060208260020104928301926001038202915080841161045b575050509284525050506004919091015460ff16151560209091015292915050565b3360009081526002602052604090205460ff166104ef5760405162461bcd60e51b81526004016104e6906117a7565b60405180910390fd5b6000828152600760209081526040808320848452825280832054835260039091529020600201546001600160a01b0316331461057c5760405162461bcd60e51b815260206004820152602660248201527f43616c6c6572206973206e6f7420746865206f776e6572206f662074686520736044820152653a30ba34b7b760d11b60648201526084016104e6565b600082815260076020908152604080832084845282528083205483526003825291829020600401805460ff1916905581518481529081018390527f59c766dde985af4f6dd5f1d75d4933f9f24cb7760dfd0e80b6d25471b9b1282c910160405180910390a15050565b6000546001600160a01b0316331461060f5760405162461bcd60e51b81526004016104e690611772565b6106196000611156565b565b6003602052600090815260409020805460018201805491929161063d90611985565b80601f016020809104026020016040519081016040528092919081815260200182805461066990611985565b80156106b65780601f1061068b576101008083540402835291602001916106b6565b820191906000526020600020905b81548152906001019060200180831161069957829003601f168201915b50505050600283015460049093015491926001600160a01b03169160ff16905084565b3360009081526001602052604090205460ff166107385760405162461bcd60e51b815260206004820152601e60248201527f546869732046656174757265206973206f6e6c7920666f72207573657273000060448201526064016104e6565b610746600c80546001019055565b6000858152600760209081526040808320878452909152902054600b5481111580156107725750600081115b6107be5760405162461bcd60e51b815260206004820152601d60248201527f696e64657820666f7220626f6f6b696e67206e6f7420616c6c6f77656400000060448201526064016104e6565b6001600160e81b031983166108155760405162461bcd60e51b815260206004820152601c60248201527f6e6577207363686564756c652063616e6e6f7420626520656d7074790000000060448201526064016104e6565b6000600360008381526020019081526020016000206040518060a00160405290816000820154815260200160018201805461084f90611985565b80601f016020809104026020016040519081016040528092919081815260200182805461087b90611985565b80156108c85780601f1061089d576101008083540402835291602001916108c8565b820191906000526020600020905b8154815290600101906020018083116108ab57829003601f168201915b505050918352505060028201546001600160a01b031660208201526040805161010081018083529190920191906003840190600890826000855b82829054906101000a900460e81b6001600160e81b03191681526020019060030190602082600201049283019260010382029150808411610902575050509284525050506004919091015460ff16151560209091015260808101519091506109ac5760405162461bcd60e51b815260206004820152601d60248201527f43757272656e742053746174696f6e206973206e6f742061637469766500000060448201526064016104e6565b80516001600160a01b03841660009081526006602052604090205460ff16610a165760405162461bcd60e51b815260206004820152601a60248201527f7468697320746f6b656e206973206e6f7420616363657074656400000000000060448201526064016104e6565b6040516323b872dd60e01b8152336004820152306024820152604481018290526001600160a01b038516906323b872dd90606401602060405180830381600087803b158015610a6457600080fd5b505af1158015610a78573d6000803e3d6000fd5b505050506040513d601f19601f82011682018060405250810190610a9c91906115b8565b50600083815260046020526040812054879190610ab9904261196e565b9050600954811115610b95576000610adc600954836111a690919063ffffffff16565b90508060078110610b2557506007610af482826111a6565b600954610b01919061194f565b60008881526004602052604081208054909190610b1f908490611923565b90915550505b60015b818160ff1611610b9157610b3d600186611923565b9450600060e81b87606001518260ff1660088110610b6b57634e487b7160e01b600052603260045260246000fd5b6001600160e81b0319909216602092909202015280610b89816119db565b915050610b28565b5050505b610ba06007836119fb565b9150600084606001518360088110610bc857634e487b7160e01b600052603260045260246000fd5b6020020151881690506001600160e81b0319811615610c215760405162461bcd60e51b81526020600482015260156024820152746e6577207363686564756c65206f7665726c61707360581b60448201526064016104e6565b84606001518360088110610c4557634e487b7160e01b600052603260045260246000fd5b6020020151881785606001518460088110610c7057634e487b7160e01b600052603260045260246000fd5b6001600160e81b03199092166020928302919091015260008781526003825260409020865181558682015180518893610cb0926001850192910190611406565b5060408201516002820180546001600160a01b0319166001600160a01b039092169190911790556060820151610cec906003830190600861148a565b506080918201516004909101805460ff1916911515919091179055604080518d8152602081018d9052908101869052606081018590526001600160e81b03198a16918101919091527fcae132a109c390490a273e807eb7367bb9289551d5b0493bdfd9b3ff52d7dcf89060a00160405180910390a15050505050505050505050565b33600081815260016020818152604092839020805460ff191690921790915590519182527f4028b92b6812cf0ad64ad14283561bd81eaf1d9e718a6eabcfd40016f83bd1e991015b60405180910390a1565b6000546001600160a01b03163314610dea5760405162461bcd60e51b81526004016104e690611772565b6001600160a01b03166000908152600660205260409020805460ff19166001179055565b3360009081526002602052604090205460ff16610e3d5760405162461bcd60e51b81526004016104e6906117a7565b6001600160a01b03821660009081526006602052604090205460ff16610ea55760405162461bcd60e51b815260206004820152601960248201527f7468697320746f6b656e206973206e6f7420616c6c6f7765640000000000000060448201526064016104e6565b6000610ebf82610eb96007818a60186111b9565b906111b9565b6040516323b872dd60e01b8152336004820152306024820152604481018290529091506001600160a01b038416906323b872dd90606401602060405180830381600087803b158015610f1057600080fd5b505af1158015610f24573d6000803e3d6000fd5b505050506040513d601f19601f82011682018060405250810190610f4891906115b8565b506001600160a01b038316600090815260056020908152604080832033845290915281208054839290610f7c908490611923565b9091555050600d805460010190556000610f95600d5490565b905060005b83811015610fc057610fae888888856111c5565b80610fb8816119c0565b915050610f9a565b507fc805ef5cc6135113c4e86465c528816ebb074fffeb26b77c8c146ef92cf26df3610feb600b5490565b87878a86604051611000959493929190611882565b60405180910390a150505050505050565b3360009081526001602052604090205460ff166110705760405162461bcd60e51b815260206004820152601e60248201527f546869732046656174757265206973206f6e6c7920666f72207573657273000060448201526064016104e6565b33600081815260026020908152604091829020805460ff1916600117905590519182527f17e59d09e97aca8953388600495a0ba17a6c0caef6d4e7a595c1921ecaadc4559101610db6565b6000546001600160a01b031633146110e55760405162461bcd60e51b81526004016104e690611772565b6001600160a01b03811661114a5760405162461bcd60e51b815260206004820152602660248201527f4f776e61626c653a206e6577206f776e657220697320746865207a65726f206160448201526564647265737360d01b60648201526084016104e6565b61115381611156565b50565b600080546001600160a01b038381166001600160a01b0319831681178455604051919092169283917f8be0079c531659141344cd1fd0a4f28419497f9722a3daafe3b4186f6b6457e09190a35050565b60006111b2828461193b565b9392505050565b60006111b2828461194f565b6111d3600b80546001019055565b60006040518060a0016040528086815260200185858080601f0160208091040260200160405190810160405280939291908181526020018383808284376000920182905250938552505033602080850191909152604080516101008101825284815291820184905281810184905260608083018590526080830185905260a0830185905260c0830185905260e08301859052908501919091526001930192909252600a5492935060049150611287600b5490565b81526020019081526020016000208190555080600360006112a7600b5490565b81526020808201929092526040016000208251815582820151805191926112d692600185019290910190611406565b5060408201516002820180546001600160a01b0319166001600160a01b039092169190911790556060820151611312906003830190600861148a565b50608091909101516004909101805460ff19169115159190911790556000828152600860205260408120805491611348836119c0565b9091555050600b54600083815260076020908152604080832060088084528285208054865291845291842094909455918590525254600b547fce395db023d011bb1b5250a05ed9da88bd09cb0513699c20609ff4816508f5eb91849187878a6040516113b9969594939291906118ea565b60405180910390a15050505050565b6040518060a00160405280600081526020016060815260200160006001600160a01b031681526020016113f961151c565b8152600060209091015290565b82805461141290611985565b90600052602060002090601f016020900481019282611434576000855561147a565b82601f1061144d57805160ff191683800117855561147a565b8280016001018555821561147a579182015b8281111561147a57825182559160200191906001019061145f565b5061148692915061153b565b5090565b60018301918390821561147a5791602002820160005b838211156114e057835183826101000a81548162ffffff021916908360e81c021790555092602001926003016020816002010492830192600103026114a0565b801561150f5782816101000a81549062ffffff02191690556003016020816002010492830192600103026114e0565b505061148692915061153b565b6040518061010001604052806008906020820280368337509192915050565b5b80821115611486576000815560010161153c565b80356001600160a01b038116811461156757600080fd5b919050565b60006020828403121561157d578081fd5b6111b282611550565b60008060408385031215611598578081fd5b6115a183611550565b91506115af60208401611550565b90509250929050565b6000602082840312156115c9578081fd5b815180151581146111b2578182fd5b6000602082840312156115e9578081fd5b5035919050565b600080600080600060808688031215611607578081fd5b85359450602086013567ffffffffffffffff80821115611625578283fd5b818801915088601f830112611638578283fd5b813581811115611646578384fd5b896020828501011115611657578384fd5b60208301965080955050505061166f60408701611550565b949793965091946060013592915050565b60008060408385031215611692578182fd5b50508035926020909101359150565b600080600080600060a086880312156116b8578081fd5b85359450602086013593506040860135925060608601356001600160e81b0319811681146116e4578182fd5b91506116f260808701611550565b90509295509295909350565b81835281816020850137506000828201602090810191909152601f909101601f19169091010190565b60008151808452815b8181101561174c57602081850181015186830182015201611730565b8181111561175d5782602083870101525b50601f01601f19169290920160200192915050565b6020808252818101527f4f776e61626c653a2063616c6c6572206973206e6f7420746865206f776e6572604082015260600190565b60208082526033908201527f546f206265636f6d6520612070726f766964657220796f75206e65656420746f6040820152721031329030903ab9b2b91037b3102537b6a2ab60691b606082015260800190565b60006020808352835181840152808401516101808060408601526118226101a0860183611727565b915060018060a01b036040870151166060860152606086015160808601855b60088110156118685782516001600160e81b03191682529185019190850190600101611841565b505050608086015180151586830152925050949350505050565b85815260806020820152600061189c6080830186886116fe565b604083019490945250606001529392505050565b8481526080602082015260006118c96080830186611727565b6001600160a01b039490941660408301525090151560609091015292915050565b86815285602082015284604082015260a06060820152600061191060a0830185876116fe565b9050826080830152979650505050505050565b6000821982111561193657611936611a0f565b500190565b60008261194a5761194a611a25565b500490565b600081600019048311821515161561196957611969611a0f565b500290565b60008282101561198057611980611a0f565b500390565b600181811c9082168061199957607f821691505b602082108114156119ba57634e487b7160e01b600052602260045260246000fd5b50919050565b60006000198214156119d4576119d4611a0f565b5060010190565b600060ff821660ff8114156119f2576119f2611a0f565b60010192915050565b600082611a0a57611a0a611a25565b500690565b634e487b7160e01b600052601160045260246000fd5b634e487b7160e01b600052601260045260246000fdfea26469706673582212204b20746a3e93b6e18424bb380f22f6aba7a6e5224b426e1aae7ea6a2a149d34764736f6c63430008040033",
  "devdoc": {
    "kind": "dev",
    "methods": {
      "bookStation(uint256,uint256,uint256,bytes3,address)": {
        "details": "** @note   index : index of the station ( starts from 1 day : index of day starting from today. if today is 15 and we want for 16 we must write 1, 0 is not allowed time : pass in bytes 24 slots ( hrs ) i.e: 0010 0001 0000 0000 => we book for hours 3 and 8 parse into hex : 0x2100 => this is the input tokenAddr : token which is used to perform the transaction , must be an approved token*"
      },
      "getBlockTimestamp()": {
        "details": "dummy call for usage in the testing*"
      },
      "owner()": {
        "details": "Returns the address of the current owner."
      },
      "renounceOwnership()": {
        "details": "Leaves the contract without owner. It will not be possible to call `onlyOwner` functions anymore. Can only be called by the current owner. NOTE: Renouncing ownership will leave the contract without an owner, thereby removing any functionality that is only available to the owner."
      },
      "transferOwnership(address)": {
        "details": "Transfers ownership of the contract to a new account (`newOwner`). Can only be called by the current owner."
      }
    },
    "version": 1
  },
  "userdoc": {
    "kind": "user",
    "methods": {},
    "version": 1
  },
  "storageLayout": {
    "storage": [
      {
        "astId": 7,
        "contract": "contracts/JomEV.sol:JomEV",
        "label": "_owner",
        "offset": 0,
        "slot": "0",
        "type": "t_address"
      },
      {
        "astId": 1340,
        "contract": "contracts/JomEV.sol:JomEV",
        "label": "isMember",
        "offset": 0,
        "slot": "1",
        "type": "t_mapping(t_address,t_bool)"
      },
      {
        "astId": 1344,
        "contract": "contracts/JomEV.sol:JomEV",
        "label": "isProvider",
        "offset": 0,
        "slot": "2",
        "type": "t_mapping(t_address,t_bool)"
      },
      {
        "astId": 1349,
        "contract": "contracts/JomEV.sol:JomEV",
        "label": "stationsMap",
        "offset": 0,
        "slot": "3",
        "type": "t_mapping(t_uint256,t_struct(Station)1279_storage)"
      },
      {
        "astId": 1353,
        "contract": "contracts/JomEV.sol:JomEV",
        "label": "station_time_lower_bound",
        "offset": 0,
        "slot": "4",
        "type": "t_mapping(t_uint256,t_uint256)"
      },
      {
        "astId": 1359,
        "contract": "contracts/JomEV.sol:JomEV",
        "label": "stakes",
        "offset": 0,
        "slot": "5",
        "type": "t_mapping(t_address,t_mapping(t_address,t_uint256))"
      },
      {
        "astId": 1363,
        "contract": "contracts/JomEV.sol:JomEV",
        "label": "isAcceptedPayment",
        "offset": 0,
        "slot": "6",
        "type": "t_mapping(t_address,t_bool)"
      },
      {
        "astId": 1369,
        "contract": "contracts/JomEV.sol:JomEV",
        "label": "ChargingPointToStation",
        "offset": 0,
        "slot": "7",
        "type": "t_mapping(t_uint256,t_mapping(t_uint256,t_uint256))"
      },
      {
        "astId": 1373,
        "contract": "contracts/JomEV.sol:JomEV",
        "label": "StationCounterInChargingPoint",
        "offset": 0,
        "slot": "8",
        "type": "t_mapping(t_uint256,t_uint256)"
      },
      {
        "astId": 1376,
        "contract": "contracts/JomEV.sol:JomEV",
        "label": "TIMESTAMP_PER_DAY",
        "offset": 0,
        "slot": "9",
        "type": "t_uint256"
      },
      {
        "astId": 1378,
        "contract": "contracts/JomEV.sol:JomEV",
        "label": "contract_time_lower_bound",
        "offset": 0,
        "slot": "10",
        "type": "t_uint256"
      },
      {
        "astId": 1381,
        "contract": "contracts/JomEV.sol:JomEV",
        "label": "stationIDs",
        "offset": 0,
        "slot": "11",
        "type": "t_struct(Counter)821_storage"
      },
      {
        "astId": 1384,
        "contract": "contracts/JomEV.sol:JomEV",
        "label": "bookingIDs",
        "offset": 0,
        "slot": "12",
        "type": "t_struct(Counter)821_storage"
      },
      {
        "astId": 1387,
        "contract": "contracts/JomEV.sol:JomEV",
        "label": "ChargingPointIDs",
        "offset": 0,
        "slot": "13",
        "type": "t_struct(Counter)821_storage"
      }
    ],
    "types": {
      "t_address": {
        "encoding": "inplace",
        "label": "address",
        "numberOfBytes": "20"
      },
      "t_array(t_bytes3)8_storage": {
        "base": "t_bytes3",
        "encoding": "inplace",
        "label": "bytes3[8]",
        "numberOfBytes": "32"
      },
      "t_bool": {
        "encoding": "inplace",
        "label": "bool",
        "numberOfBytes": "1"
      },
      "t_bytes3": {
        "encoding": "inplace",
        "label": "bytes3",
        "numberOfBytes": "3"
      },
      "t_mapping(t_address,t_bool)": {
        "encoding": "mapping",
        "key": "t_address",
        "label": "mapping(address => bool)",
        "numberOfBytes": "32",
        "value": "t_bool"
      },
      "t_mapping(t_address,t_mapping(t_address,t_uint256))": {
        "encoding": "mapping",
        "key": "t_address",
        "label": "mapping(address => mapping(address => uint256))",
        "numberOfBytes": "32",
        "value": "t_mapping(t_address,t_uint256)"
      },
      "t_mapping(t_address,t_uint256)": {
        "encoding": "mapping",
        "key": "t_address",
        "label": "mapping(address => uint256)",
        "numberOfBytes": "32",
        "value": "t_uint256"
      },
      "t_mapping(t_uint256,t_mapping(t_uint256,t_uint256))": {
        "encoding": "mapping",
        "key": "t_uint256",
        "label": "mapping(uint256 => mapping(uint256 => uint256))",
        "numberOfBytes": "32",
        "value": "t_mapping(t_uint256,t_uint256)"
      },
      "t_mapping(t_uint256,t_struct(Station)1279_storage)": {
        "encoding": "mapping",
        "key": "t_uint256",
        "label": "mapping(uint256 => struct Station)",
        "numberOfBytes": "32",
        "value": "t_struct(Station)1279_storage"
      },
      "t_mapping(t_uint256,t_uint256)": {
        "encoding": "mapping",
        "key": "t_uint256",
        "label": "mapping(uint256 => uint256)",
        "numberOfBytes": "32",
        "value": "t_uint256"
      },
      "t_string_storage": {
        "encoding": "bytes",
        "label": "string",
        "numberOfBytes": "32"
      },
      "t_struct(Counter)821_storage": {
        "encoding": "inplace",
        "label": "struct Counters.Counter",
        "members": [
          {
            "astId": 820,
            "contract": "contracts/JomEV.sol:JomEV",
            "label": "_value",
            "offset": 0,
            "slot": "0",
            "type": "t_uint256"
          }
        ],
        "numberOfBytes": "32"
      },
      "t_struct(Station)1279_storage": {
        "encoding": "inplace",
        "label": "struct Station",
        "members": [
          {
            "astId": 1268,
            "contract": "contracts/JomEV.sol:JomEV",
            "label": "pricePerHour",
            "offset": 0,
            "slot": "0",
            "type": "t_uint256"
          },
          {
            "astId": 1270,
            "contract": "contracts/JomEV.sol:JomEV",
            "label": "location",
            "offset": 0,
            "slot": "1",
            "type": "t_string_storage"
          },
          {
            "astId": 1272,
            "contract": "contracts/JomEV.sol:JomEV",
            "label": "owner",
            "offset": 0,
            "slot": "2",
            "type": "t_address"
          },
          {
            "astId": 1276,
            "contract": "contracts/JomEV.sol:JomEV",
            "label": "availability",
            "offset": 0,
            "slot": "3",
            "type": "t_array(t_bytes3)8_storage"
          },
          {
            "astId": 1278,
            "contract": "contracts/JomEV.sol:JomEV",
            "label": "isActive",
            "offset": 0,
            "slot": "4",
            "type": "t_bool"
          }
        ],
        "numberOfBytes": "160"
      },
      "t_uint256": {
        "encoding": "inplace",
        "label": "uint256",
        "numberOfBytes": "32"
      }
    }
  }
}