{
  "address": "0x1fDb67E186C6D955f26C5d706a0F3E0aa6d49333",
  "abi": [
    {
      "inputs": [],
      "stateMutability": "nonpayable",
      "type": "constructor"
    },
    {
      "anonymous": false,
      "inputs": [
        {
          "indexed": false,
          "internalType": "uint256",
          "name": "chargingPointIndex",
          "type": "uint256"
        },
        {
          "indexed": false,
          "internalType": "uint256",
          "name": "connectorIndex",
          "type": "uint256"
        },
        {
          "indexed": false,
          "internalType": "uint256",
          "name": "fee",
          "type": "uint256"
        },
        {
          "indexed": false,
          "internalType": "uint256",
          "name": "day",
          "type": "uint256"
        },
        {
          "indexed": false,
          "internalType": "bytes3",
          "name": "bookingSlot",
          "type": "bytes3"
        }
      ],
      "name": "BookingSubmited",
      "type": "event"
    },
    {
      "anonymous": false,
      "inputs": [
        {
          "indexed": false,
          "internalType": "uint256",
          "name": "index",
          "type": "uint256"
        },
        {
          "indexed": false,
          "internalType": "string",
          "name": "cid",
          "type": "string"
        },
        {
          "indexed": false,
          "internalType": "uint256",
          "name": "price",
          "type": "uint256"
        },
        {
          "indexed": false,
          "internalType": "uint256",
          "name": "amountStaked",
          "type": "uint256"
        }
      ],
      "name": "ChargingPointAdded",
      "type": "event"
    },
    {
      "anonymous": false,
      "inputs": [
        {
          "indexed": false,
          "internalType": "uint256",
          "name": "charginPointIndex",
          "type": "uint256"
        },
        {
          "indexed": false,
          "internalType": "uint256",
          "name": "connectorIndex",
          "type": "uint256"
        }
      ],
      "name": "ConnectorDesactivated",
      "type": "event"
    },
    {
      "anonymous": false,
      "inputs": [
        {
          "indexed": true,
          "internalType": "address",
          "name": "previousOwner",
          "type": "address"
        },
        {
          "indexed": true,
          "internalType": "address",
          "name": "newOwner",
          "type": "address"
        }
      ],
      "name": "OwnershipTransferred",
      "type": "event"
    },
    {
      "anonymous": false,
      "inputs": [
        {
          "indexed": false,
          "internalType": "address",
          "name": "providerAddr",
          "type": "address"
        }
      ],
      "name": "ProviderJoined",
      "type": "event"
    },
    {
      "anonymous": false,
      "inputs": [
        {
          "indexed": false,
          "internalType": "uint256",
          "name": "chargingPointId",
          "type": "uint256"
        },
        {
          "indexed": false,
          "internalType": "uint256",
          "name": "connectorIndex",
          "type": "uint256"
        },
        {
          "indexed": false,
          "internalType": "uint256",
          "name": "index",
          "type": "uint256"
        },
        {
          "indexed": false,
          "internalType": "string",
          "name": "cid",
          "type": "string"
        },
        {
          "indexed": false,
          "internalType": "uint256",
          "name": "price",
          "type": "uint256"
        }
      ],
      "name": "StationAdded",
      "type": "event"
    },
    {
      "anonymous": false,
      "inputs": [
        {
          "indexed": false,
          "internalType": "address",
          "name": "userAddr",
          "type": "address"
        }
      ],
      "name": "UserJoined",
      "type": "event"
    },
    {
      "inputs": [],
      "name": "ChargingPointIDs",
      "outputs": [
        {
          "internalType": "uint256",
          "name": "_value",
          "type": "uint256"
        }
      ],
      "stateMutability": "view",
      "type": "function"
    },
    {
      "inputs": [
        {
          "internalType": "uint256",
          "name": "",
          "type": "uint256"
        },
        {
          "internalType": "uint256",
          "name": "",
          "type": "uint256"
        }
      ],
      "name": "ChargingPointToStation",
      "outputs": [
        {
          "internalType": "uint256",
          "name": "",
          "type": "uint256"
        }
      ],
      "stateMutability": "view",
      "type": "function"
    },
    {
      "inputs": [
        {
          "internalType": "uint256",
          "name": "",
          "type": "uint256"
        }
      ],
      "name": "StationCounterInChargingPoint",
      "outputs": [
        {
          "internalType": "uint256",
          "name": "",
          "type": "uint256"
        }
      ],
      "stateMutability": "view",
      "type": "function"
    },
    {
      "inputs": [
        {
          "internalType": "address",
          "name": "tokenAddr",
          "type": "address"
        }
      ],
      "name": "addAcceptedPayment",
      "outputs": [],
      "stateMutability": "nonpayable",
      "type": "function"
    },
    {
      "inputs": [
        {
          "internalType": "uint256",
          "name": "_pricePerHour",
          "type": "uint256"
        },
        {
          "internalType": "string",
          "name": "cid",
          "type": "string"
        },
        {
          "internalType": "address",
          "name": "tokenAddr",
          "type": "address"
        },
        {
          "internalType": "uint256",
          "name": "nConnectors",
          "type": "uint256"
        }
      ],
      "name": "addChargingPoint",
      "outputs": [],
      "stateMutability": "nonpayable",
      "type": "function"
    },
    {
      "inputs": [
        {
          "internalType": "uint256",
          "name": "chargingPointId",
          "type": "uint256"
        },
        {
          "internalType": "uint256",
          "name": "connectorIndex",
          "type": "uint256"
        },
        {
          "internalType": "uint256",
          "name": "day",
          "type": "uint256"
        },
        {
          "internalType": "bytes3",
          "name": "time",
          "type": "bytes3"
        },
        {
          "internalType": "address",
          "name": "tokenAddr",
          "type": "address"
        }
      ],
      "name": "bookStation",
      "outputs": [],
      "stateMutability": "nonpayable",
      "type": "function"
    },
    {
      "inputs": [],
      "name": "bookingIDs",
      "outputs": [
        {
          "internalType": "uint256",
          "name": "_value",
          "type": "uint256"
        }
      ],
      "stateMutability": "view",
      "type": "function"
    },
    {
      "inputs": [
        {
          "internalType": "uint256",
          "name": "chargingPointIndex",
          "type": "uint256"
        },
        {
          "internalType": "uint256",
          "name": "connectorIndex",
          "type": "uint256"
        }
      ],
      "name": "desactivateConnector",
      "outputs": [],
      "stateMutability": "nonpayable",
      "type": "function"
    },
    {
      "inputs": [],
      "name": "getBlockTimestamp",
      "outputs": [
        {
          "internalType": "uint256",
          "name": "",
          "type": "uint256"
        }
      ],
      "stateMutability": "view",
      "type": "function"
    },
    {
      "inputs": [
        {
          "internalType": "uint256",
          "name": "index",
          "type": "uint256"
        }
      ],
      "name": "getStation",
      "outputs": [
        {
          "components": [
            {
              "internalType": "uint256",
              "name": "pricePerHour",
              "type": "uint256"
            },
            {
              "internalType": "string",
              "name": "location",
              "type": "string"
            },
            {
              "internalType": "address",
              "name": "owner",
              "type": "address"
            },
            {
              "internalType": "bytes3[8]",
              "name": "availability",
              "type": "bytes3[8]"
            },
            {
              "internalType": "bool",
              "name": "isActive",
              "type": "bool"
            }
          ],
          "internalType": "struct Station",
          "name": "station",
          "type": "tuple"
        }
      ],
      "stateMutability": "view",
      "type": "function"
    },
    {
      "inputs": [
        {
          "internalType": "address",
          "name": "",
          "type": "address"
        }
      ],
      "name": "isAcceptedPayment",
      "outputs": [
        {
          "internalType": "bool",
          "name": "",
          "type": "bool"
        }
      ],
      "stateMutability": "view",
      "type": "function"
    },
    {
      "inputs": [
        {
          "internalType": "address",
          "name": "",
          "type": "address"
        }
      ],
      "name": "isMember",
      "outputs": [
        {
          "internalType": "bool",
          "name": "",
          "type": "bool"
        }
      ],
      "stateMutability": "view",
      "type": "function"
    },
    {
      "inputs": [
        {
          "internalType": "address",
          "name": "",
          "type": "address"
        }
      ],
      "name": "isProvider",
      "outputs": [
        {
          "internalType": "bool",
          "name": "",
          "type": "bool"
        }
      ],
      "stateMutability": "view",
      "type": "function"
    },
    {
      "inputs": [],
      "name": "joinAsProvider",
      "outputs": [],
      "stateMutability": "nonpayable",
      "type": "function"
    },
    {
      "inputs": [],
      "name": "joinAsUser",
      "outputs": [],
      "stateMutability": "nonpayable",
      "type": "function"
    },
    {
      "inputs": [],
      "name": "owner",
      "outputs": [
        {
          "internalType": "address",
          "name": "",
          "type": "address"
        }
      ],
      "stateMutability": "view",
      "type": "function"
    },
    {
      "inputs": [],
      "name": "renounceOwnership",
      "outputs": [],
      "stateMutability": "nonpayable",
      "type": "function"
    },
    {
      "inputs": [
        {
          "internalType": "address",
          "name": "_vault",
          "type": "address"
        }
      ],
      "name": "setVault",
      "outputs": [],
      "stateMutability": "nonpayable",
      "type": "function"
    },
    {
      "inputs": [
        {
          "internalType": "address",
          "name": "",
          "type": "address"
        },
        {
          "internalType": "address",
          "name": "",
          "type": "address"
        }
      ],
      "name": "stakes",
      "outputs": [
        {
          "internalType": "uint256",
          "name": "",
          "type": "uint256"
        }
      ],
      "stateMutability": "view",
      "type": "function"
    },
    {
      "inputs": [],
      "name": "stationIDs",
      "outputs": [
        {
          "internalType": "uint256",
          "name": "_value",
          "type": "uint256"
        }
      ],
      "stateMutability": "view",
      "type": "function"
    },
    {
      "inputs": [
        {
          "internalType": "uint256",
          "name": "",
          "type": "uint256"
        }
      ],
      "name": "station_time_lower_bound",
      "outputs": [
        {
          "internalType": "uint256",
          "name": "",
          "type": "uint256"
        }
      ],
      "stateMutability": "view",
      "type": "function"
    },
    {
      "inputs": [
        {
          "internalType": "uint256",
          "name": "",
          "type": "uint256"
        }
      ],
      "name": "stationsMap",
      "outputs": [
        {
          "internalType": "uint256",
          "name": "pricePerHour",
          "type": "uint256"
        },
        {
          "internalType": "string",
          "name": "location",
          "type": "string"
        },
        {
          "internalType": "address",
          "name": "owner",
          "type": "address"
        },
        {
          "internalType": "bool",
          "name": "isActive",
          "type": "bool"
        }
      ],
      "stateMutability": "view",
      "type": "function"
    },
    {
      "inputs": [
        {
          "internalType": "address",
          "name": "newOwner",
          "type": "address"
        }
      ],
      "name": "transferOwnership",
      "outputs": [],
      "stateMutability": "nonpayable",
      "type": "function"
    },
    {
      "inputs": [],
      "name": "vault",
      "outputs": [
        {
          "internalType": "contract IVault",
          "name": "",
          "type": "address"
        }
      ],
      "stateMutability": "view",
      "type": "function"
    }
  ],
  "transactionHash": "0x7c3f6a0d4f80ba0e5653ccb1ebc6fae89d7526b0cf5b39feb99123508772b359",
  "args": [],
  "numDeployments": 1,
  "solcInputHash": "aaea20b22bc1cebe03a7f1db691953c8",
  "bytecode": "0x608060405262015180600a5534801561001757600080fd5b506100213361002a565b42600b5561007a565b600080546001600160a01b038381166001600160a01b0319831681178455604051919092169283917f8be0079c531659141344cd1fd0a4f28419497f9722a3daafe3b4186f6b6457e09190a35050565b611b7a806100896000396000f3fe608060405234801561001057600080fd5b50600436106101585760003560e01c80639590a542116100c3578063b869813f1161007c578063b869813f14610343578063dad03ec014610363578063e32819c51461036d578063e569e5a614610380578063f2fde38b14610388578063fbfa77cf1461039b57600080fd5b80639590a5421461028c5780639ab30426146102945780639f50da31146102bf578063a1403ec9146102e2578063a230c524146102f5578063a4e47b661461031857600080fd5b80636b074a07116101155780636b074a07146101f0578063715018a614610223578063796b89b91461022b5780638da5cb5b14610231578063903dfb601461025657806394ba53dc1461027957600080fd5b8063106e054d1461015d5780631e5c502e14610186578063449efb251461019e5780634c428def146101b357806365a6ec7e146101bd5780636817031b146101dd575b600080fd5b61017061016b3660046116e1565b6103ae565b60405161017d9190611903565b60405180910390f35b600c546101909081565b60405190815260200161017d565b6101b16101ac366004611789565b6104fd565b005b600d546101909081565b6101906101cb3660046116e1565b60096020526000908152604090205481565b6101b16101eb366004611675565b61062c565b6102136101fe366004611675565b60036020526000908152604090205460ff1681565b604051901515815260200161017d565b6101b1610678565b42610190565b6000546001600160a01b03165b6040516001600160a01b03909116815260200161017d565b6102696102643660046116e1565b6106ae565b60405161017d94939291906119b9565b6101b16102873660046117aa565b61076c565b6101b1610e07565b6101906102a2366004611789565b600860209081526000928352604080842090915290825290205481565b6102136102cd366004611675565b60076020526000908152604090205460ff1681565b6101b16102f0366004611675565b610e58565b610213610303366004611675565b60026020526000908152604090205460ff1681565b61019061032636600461168f565b600660209081526000928352604080842090915290825290205481565b6101906103513660046116e1565b60056020526000908152604090205481565b600e546101909081565b6101b161037b3660046116f9565b610ea6565b6101b161111a565b6101b1610396366004611675565b6111c4565b60015461023e906001600160a01b031681565b6103b66114d1565b600460008381526020019081526020016000206040518060a0016040529081600082015481526020016001820180546103ee90611a8e565b80601f016020809104026020016040519081016040528092919081815260200182805461041a90611a8e565b80156104675780601f1061043c57610100808354040283529160200191610467565b820191906000526020600020905b81548152906001019060200180831161044a57829003601f168201915b505050918352505060028201546001600160a01b031660208201526040805161010081018083529190920191906003840190600890826000855b82829054906101000a900460e81b6001600160e81b031916815260200190600301906020826002010492830192600103820291508084116104a1575050509284525050506004919091015460ff16151560209091015292915050565b3360009081526003602052604090205460ff166105355760405162461bcd60e51b815260040161052c906118b0565b60405180910390fd5b6000828152600860209081526040808320848452825280832054835260049091529020600201546001600160a01b031633146105c25760405162461bcd60e51b815260206004820152602660248201527f43616c6c6572206973206e6f7420746865206f776e6572206f662074686520736044820152653a30ba34b7b760d11b606482015260840161052c565b60008281526008602090815260408083208484528252808320548352600480835292819020909201805460ff1916905581518481529081018390527f59c766dde985af4f6dd5f1d75d4933f9f24cb7760dfd0e80b6d25471b9b1282c910160405180910390a15050565b6000546001600160a01b031633146106565760405162461bcd60e51b815260040161052c9061187b565b600180546001600160a01b0319166001600160a01b0392909216919091179055565b6000546001600160a01b031633146106a25760405162461bcd60e51b815260040161052c9061187b565b6106ac600061125f565b565b600460205260009081526040902080546001820180549192916106d090611a8e565b80601f01602080910402602001604051908101604052809291908181526020018280546106fc90611a8e565b80156107495780601f1061071e57610100808354040283529160200191610749565b820191906000526020600020905b81548152906001019060200180831161072c57829003601f168201915b50505050600283015460049093015491926001600160a01b03169160ff16905084565b3360009081526002602052604090205460ff166107cb5760405162461bcd60e51b815260206004820152601e60248201527f546869732046656174757265206973206f6e6c7920666f722075736572730000604482015260640161052c565b6107d9600d80546001019055565b6000858152600860209081526040808320878452909152902054600c5481111580156108055750600081115b6108515760405162461bcd60e51b815260206004820152601d60248201527f696e64657820666f7220626f6f6b696e67206e6f7420616c6c6f776564000000604482015260640161052c565b6001600160e81b031983166108a85760405162461bcd60e51b815260206004820152601c60248201527f6e6577207363686564756c652063616e6e6f7420626520656d70747900000000604482015260640161052c565b6000600460008381526020019081526020016000206040518060a0016040529081600082015481526020016001820180546108e290611a8e565b80601f016020809104026020016040519081016040528092919081815260200182805461090e90611a8e565b801561095b5780601f106109305761010080835404028352916020019161095b565b820191906000526020600020905b81548152906001019060200180831161093e57829003601f168201915b505050918352505060028201546001600160a01b031660208201526040805161010081018083529190920191906003840190600890826000855b82829054906101000a900460e81b6001600160e81b03191681526020019060030190602082600201049283019260010382029150808411610995575050509284525050506004919091015460ff1615156020909101526080810151909150610a3f5760405162461bcd60e51b815260206004820152601d60248201527f43757272656e742053746174696f6e206973206e6f7420616374697665000000604482015260640161052c565b80516001600160a01b03841660009081526007602052604090205460ff16610aa95760405162461bcd60e51b815260206004820152601a60248201527f7468697320746f6b656e206973206e6f74206163636570746564000000000000604482015260640161052c565b6001546040516323b872dd60e01b81523360048201526001600160a01b03918216602482015260448101839052908516906323b872dd90606401602060405180830381600087803b158015610afd57600080fd5b505af1158015610b11573d6000803e3d6000fd5b505050506040513d601f19601f82011682018060405250810190610b3591906116c1565b50600083815260056020526040812054879190610b529042611a77565b9050600a54811115610c2e576000610b75600a54836112af90919063ffffffff16565b90508060078110610bbe57506007610b8d82826112af565b600a54610b9a9190611a58565b60008881526005602052604081208054909190610bb8908490611a2c565b90915550505b60015b818160ff1611610c2a57610bd6600186611a2c565b9450600060e81b87606001518260ff1660088110610c0457634e487b7160e01b600052603260045260246000fd5b6001600160e81b0319909216602092909202015280610c2281611ae4565b915050610bc1565b5050505b610c39600783611b04565b9150600084606001518360088110610c6157634e487b7160e01b600052603260045260246000fd5b6020020151881690506001600160e81b0319811615610cba5760405162461bcd60e51b81526020600482015260156024820152746e6577207363686564756c65206f7665726c61707360581b604482015260640161052c565b84606001518360088110610cde57634e487b7160e01b600052603260045260246000fd5b6020020151881785606001518460088110610d0957634e487b7160e01b600052603260045260246000fd5b6001600160e81b03199092166020928302919091015260008781526004825260409020865181558682015180518893610d4992600185019291019061150f565b5060408201516002820180546001600160a01b0319166001600160a01b039092169190911790556060820151610d859060038301906008611593565b506080918201516004909101805460ff1916911515919091179055604080518d8152602081018d9052908101869052606081018590526001600160e81b03198a16918101919091527fcae132a109c390490a273e807eb7367bb9289551d5b0493bdfd9b3ff52d7dcf89060a00160405180910390a15050505050505050505050565b33600081815260026020908152604091829020805460ff1916600117905590519182527f4028b92b6812cf0ad64ad14283561bd81eaf1d9e718a6eabcfd40016f83bd1e991015b60405180910390a1565b6000546001600160a01b03163314610e825760405162461bcd60e51b815260040161052c9061187b565b6001600160a01b03166000908152600760205260409020805460ff19166001179055565b3360009081526003602052604090205460ff16610ed55760405162461bcd60e51b815260040161052c906118b0565b6001600160a01b03821660009081526007602052604090205460ff16610f3d5760405162461bcd60e51b815260206004820152601960248201527f7468697320746f6b656e206973206e6f7420616c6c6f77656400000000000000604482015260640161052c565b6000610f5782610f516007818a60186112c2565b906112c2565b6001546040516323b872dd60e01b81523360048201526001600160a01b039182166024820152604481018390529192508416906323b872dd90606401602060405180830381600087803b158015610fad57600080fd5b505af1158015610fc1573d6000803e3d6000fd5b505050506040513d601f19601f82011682018060405250810190610fe591906116c1565b506001546040516304e1b7c960e51b8152336004820152602481018390526001600160a01b03858116604483015290911690639c36f92090606401600060405180830381600087803b15801561103a57600080fd5b505af115801561104e573d6000803e3d6000fd5b505050506001600160a01b038316600090815260066020908152604080832033845290915281208054839290611085908490611a2c565b9091555050600e80546001019055600061109e600e5490565b905060005b838110156110c9576110b7888888856112ce565b806110c181611ac9565b9150506110a3565b507fc805ef5cc6135113c4e86465c528816ebb074fffeb26b77c8c146ef92cf26df36110f4600c5490565b87878a8660405161110995949392919061198b565b60405180910390a150505050505050565b3360009081526002602052604090205460ff166111795760405162461bcd60e51b815260206004820152601e60248201527f546869732046656174757265206973206f6e6c7920666f722075736572730000604482015260640161052c565b33600081815260036020908152604091829020805460ff1916600117905590519182527f17e59d09e97aca8953388600495a0ba17a6c0caef6d4e7a595c1921ecaadc4559101610e4e565b6000546001600160a01b031633146111ee5760405162461bcd60e51b815260040161052c9061187b565b6001600160a01b0381166112535760405162461bcd60e51b815260206004820152602660248201527f4f776e61626c653a206e6577206f776e657220697320746865207a65726f206160448201526564647265737360d01b606482015260840161052c565b61125c8161125f565b50565b600080546001600160a01b038381166001600160a01b0319831681178455604051919092169283917f8be0079c531659141344cd1fd0a4f28419497f9722a3daafe3b4186f6b6457e09190a35050565b60006112bb8284611a44565b9392505050565b60006112bb8284611a58565b6112dc600c80546001019055565b60006040518060a0016040528086815260200185858080601f0160208091040260200160405190810160405280939291908181526020018383808284376000920182905250938552505033602080850191909152604080516101008101825284815291820184905281810184905260608083018590526080830185905260a0830185905260c0830185905260e08301859052908501919091526001930192909252600b5492935060059150611390600c5490565b81526020019081526020016000208190555080600460006113b0600c5490565b81526020808201929092526040016000208251815582820151805191926113df9260018501929091019061150f565b5060408201516002820180546001600160a01b0319166001600160a01b03909216919091179055606082015161141b9060038301906008611593565b50608091909101516004909101805460ff1916911515919091179055600082815260096020526040812080549161145183611ac9565b9091555050600c54600083815260086020908152604080832060098084528285208054865291845291842094909455918590525254600c547fce395db023d011bb1b5250a05ed9da88bd09cb0513699c20609ff4816508f5eb91849187878a6040516114c2969594939291906119f3565b60405180910390a15050505050565b6040518060a00160405280600081526020016060815260200160006001600160a01b03168152602001611502611625565b8152600060209091015290565b82805461151b90611a8e565b90600052602060002090601f01602090048101928261153d5760008555611583565b82601f1061155657805160ff1916838001178555611583565b82800160010185558215611583579182015b82811115611583578251825591602001919060010190611568565b5061158f929150611644565b5090565b6001830191839082156115835791602002820160005b838211156115e957835183826101000a81548162ffffff021916908360e81c021790555092602001926003016020816002010492830192600103026115a9565b80156116185782816101000a81549062ffffff02191690556003016020816002010492830192600103026115e9565b505061158f929150611644565b6040518061010001604052806008906020820280368337509192915050565b5b8082111561158f5760008155600101611645565b80356001600160a01b038116811461167057600080fd5b919050565b600060208284031215611686578081fd5b6112bb82611659565b600080604083850312156116a1578081fd5b6116aa83611659565b91506116b860208401611659565b90509250929050565b6000602082840312156116d2578081fd5b815180151581146112bb578182fd5b6000602082840312156116f2578081fd5b5035919050565b600080600080600060808688031215611710578081fd5b85359450602086013567ffffffffffffffff8082111561172e578283fd5b818801915088601f830112611741578283fd5b81358181111561174f578384fd5b896020828501011115611760578384fd5b60208301965080955050505061177860408701611659565b949793965091946060013592915050565b6000806040838503121561179b578182fd5b50508035926020909101359150565b600080600080600060a086880312156117c1578081fd5b85359450602086013593506040860135925060608601356001600160e81b0319811681146117ed578182fd5b91506117fb60808701611659565b90509295509295909350565b81835281816020850137506000828201602090810191909152601f909101601f19169091010190565b60008151808452815b8181101561185557602081850181015186830182015201611839565b818111156118665782602083870101525b50601f01601f19169290920160200192915050565b6020808252818101527f4f776e61626c653a2063616c6c6572206973206e6f7420746865206f776e6572604082015260600190565b60208082526033908201527f546f206265636f6d6520612070726f766964657220796f75206e65656420746f6040820152721031329030903ab9b2b91037b3102537b6a2ab60691b606082015260800190565b600060208083528351818401528084015161018080604086015261192b6101a0860183611830565b915060018060a01b036040870151166060860152606086015160808601855b60088110156119715782516001600160e81b0319168252918501919085019060010161194a565b505050608086015180151586830152925050949350505050565b8581526080602082015260006119a5608083018688611807565b604083019490945250606001529392505050565b8481526080602082015260006119d26080830186611830565b6001600160a01b039490941660408301525090151560609091015292915050565b86815285602082015284604082015260a060608201526000611a1960a083018587611807565b9050826080830152979650505050505050565b60008219821115611a3f57611a3f611b18565b500190565b600082611a5357611a53611b2e565b500490565b6000816000190483118215151615611a7257611a72611b18565b500290565b600082821015611a8957611a89611b18565b500390565b600181811c90821680611aa257607f821691505b60208210811415611ac357634e487b7160e01b600052602260045260246000fd5b50919050565b6000600019821415611add57611add611b18565b5060010190565b600060ff821660ff811415611afb57611afb611b18565b60010192915050565b600082611b1357611b13611b2e565b500690565b634e487b7160e01b600052601160045260246000fd5b634e487b7160e01b600052601260045260246000fdfea2646970667358221220c6a9060e6cde1b291cc5cf094efd4ab0bf7d0ffacd1c7dba16f3c7d2900dd36964736f6c63430008040033",
  "devdoc": {
    "kind": "dev",
    "methods": {
      "bookStation(uint256,uint256,uint256,bytes3,address)": {
        "details": "** @note   index : index of the station ( starts from 1 day : index of day starting from today. if today is 15 and we want for 16 we must write 1, 0 is not allowed time : pass in bytes 24 slots ( hrs ) i.e: 0010 0001 0000 0000 => we book for hours 3 and 8 parse into hex : 0x2100 => this is the input tokenAddr : token which is used to perform the transaction , must be an approved token*"
      },
      "getBlockTimestamp()": {
        "details": "dummy call for usage in the testing*"
      },
      "owner()": {
        "details": "Returns the address of the current owner."
      },
      "renounceOwnership()": {
        "details": "Leaves the contract without owner. It will not be possible to call `onlyOwner` functions anymore. Can only be called by the current owner. NOTE: Renouncing ownership will leave the contract without an owner, thereby removing any functionality that is only available to the owner."
      },
      "transferOwnership(address)": {
        "details": "Transfers ownership of the contract to a new account (`newOwner`). Can only be called by the current owner."
      }
    },
    "version": 1
  },
  "userdoc": {
    "kind": "user",
    "methods": {},
    "version": 1
  },
  "storageLayout": {
    "storage": [
      {
        "astId": 7,
        "contract": "contracts/JomEV.sol:JomEV",
        "label": "_owner",
        "offset": 0,
        "slot": "0",
        "type": "t_address"
      },
      {
        "astId": 1410,
        "contract": "contracts/JomEV.sol:JomEV",
        "label": "vault",
        "offset": 0,
        "slot": "1",
        "type": "t_contract(IVault)1376"
      },
      {
        "astId": 1462,
        "contract": "contracts/JomEV.sol:JomEV",
        "label": "isMember",
        "offset": 0,
        "slot": "2",
        "type": "t_mapping(t_address,t_bool)"
      },
      {
        "astId": 1466,
        "contract": "contracts/JomEV.sol:JomEV",
        "label": "isProvider",
        "offset": 0,
        "slot": "3",
        "type": "t_mapping(t_address,t_bool)"
      },
      {
        "astId": 1471,
        "contract": "contracts/JomEV.sol:JomEV",
        "label": "stationsMap",
        "offset": 0,
        "slot": "4",
        "type": "t_mapping(t_uint256,t_struct(Station)1398_storage)"
      },
      {
        "astId": 1475,
        "contract": "contracts/JomEV.sol:JomEV",
        "label": "station_time_lower_bound",
        "offset": 0,
        "slot": "5",
        "type": "t_mapping(t_uint256,t_uint256)"
      },
      {
        "astId": 1481,
        "contract": "contracts/JomEV.sol:JomEV",
        "label": "stakes",
        "offset": 0,
        "slot": "6",
        "type": "t_mapping(t_address,t_mapping(t_address,t_uint256))"
      },
      {
        "astId": 1485,
        "contract": "contracts/JomEV.sol:JomEV",
        "label": "isAcceptedPayment",
        "offset": 0,
        "slot": "7",
        "type": "t_mapping(t_address,t_bool)"
      },
      {
        "astId": 1491,
        "contract": "contracts/JomEV.sol:JomEV",
        "label": "ChargingPointToStation",
        "offset": 0,
        "slot": "8",
        "type": "t_mapping(t_uint256,t_mapping(t_uint256,t_uint256))"
      },
      {
        "astId": 1495,
        "contract": "contracts/JomEV.sol:JomEV",
        "label": "StationCounterInChargingPoint",
        "offset": 0,
        "slot": "9",
        "type": "t_mapping(t_uint256,t_uint256)"
      },
      {
        "astId": 1498,
        "contract": "contracts/JomEV.sol:JomEV",
        "label": "TIMESTAMP_PER_DAY",
        "offset": 0,
        "slot": "10",
        "type": "t_uint256"
      },
      {
        "astId": 1500,
        "contract": "contracts/JomEV.sol:JomEV",
        "label": "contract_time_lower_bound",
        "offset": 0,
        "slot": "11",
        "type": "t_uint256"
      },
      {
        "astId": 1503,
        "contract": "contracts/JomEV.sol:JomEV",
        "label": "stationIDs",
        "offset": 0,
        "slot": "12",
        "type": "t_struct(Counter)821_storage"
      },
      {
        "astId": 1506,
        "contract": "contracts/JomEV.sol:JomEV",
        "label": "bookingIDs",
        "offset": 0,
        "slot": "13",
        "type": "t_struct(Counter)821_storage"
      },
      {
        "astId": 1509,
        "contract": "contracts/JomEV.sol:JomEV",
        "label": "ChargingPointIDs",
        "offset": 0,
        "slot": "14",
        "type": "t_struct(Counter)821_storage"
      }
    ],
    "types": {
      "t_address": {
        "encoding": "inplace",
        "label": "address",
        "numberOfBytes": "20"
      },
      "t_array(t_bytes3)8_storage": {
        "base": "t_bytes3",
        "encoding": "inplace",
        "label": "bytes3[8]",
        "numberOfBytes": "32"
      },
      "t_bool": {
        "encoding": "inplace",
        "label": "bool",
        "numberOfBytes": "1"
      },
      "t_bytes3": {
        "encoding": "inplace",
        "label": "bytes3",
        "numberOfBytes": "3"
      },
      "t_contract(IVault)1376": {
        "encoding": "inplace",
        "label": "contract IVault",
        "numberOfBytes": "20"
      },
      "t_mapping(t_address,t_bool)": {
        "encoding": "mapping",
        "key": "t_address",
        "label": "mapping(address => bool)",
        "numberOfBytes": "32",
        "value": "t_bool"
      },
      "t_mapping(t_address,t_mapping(t_address,t_uint256))": {
        "encoding": "mapping",
        "key": "t_address",
        "label": "mapping(address => mapping(address => uint256))",
        "numberOfBytes": "32",
        "value": "t_mapping(t_address,t_uint256)"
      },
      "t_mapping(t_address,t_uint256)": {
        "encoding": "mapping",
        "key": "t_address",
        "label": "mapping(address => uint256)",
        "numberOfBytes": "32",
        "value": "t_uint256"
      },
      "t_mapping(t_uint256,t_mapping(t_uint256,t_uint256))": {
        "encoding": "mapping",
        "key": "t_uint256",
        "label": "mapping(uint256 => mapping(uint256 => uint256))",
        "numberOfBytes": "32",
        "value": "t_mapping(t_uint256,t_uint256)"
      },
      "t_mapping(t_uint256,t_struct(Station)1398_storage)": {
        "encoding": "mapping",
        "key": "t_uint256",
        "label": "mapping(uint256 => struct Station)",
        "numberOfBytes": "32",
        "value": "t_struct(Station)1398_storage"
      },
      "t_mapping(t_uint256,t_uint256)": {
        "encoding": "mapping",
        "key": "t_uint256",
        "label": "mapping(uint256 => uint256)",
        "numberOfBytes": "32",
        "value": "t_uint256"
      },
      "t_string_storage": {
        "encoding": "bytes",
        "label": "string",
        "numberOfBytes": "32"
      },
      "t_struct(Counter)821_storage": {
        "encoding": "inplace",
        "label": "struct Counters.Counter",
        "members": [
          {
            "astId": 820,
            "contract": "contracts/JomEV.sol:JomEV",
            "label": "_value",
            "offset": 0,
            "slot": "0",
            "type": "t_uint256"
          }
        ],
        "numberOfBytes": "32"
      },
      "t_struct(Station)1398_storage": {
        "encoding": "inplace",
        "label": "struct Station",
        "members": [
          {
            "astId": 1387,
            "contract": "contracts/JomEV.sol:JomEV",
            "label": "pricePerHour",
            "offset": 0,
            "slot": "0",
            "type": "t_uint256"
          },
          {
            "astId": 1389,
            "contract": "contracts/JomEV.sol:JomEV",
            "label": "location",
            "offset": 0,
            "slot": "1",
            "type": "t_string_storage"
          },
          {
            "astId": 1391,
            "contract": "contracts/JomEV.sol:JomEV",
            "label": "owner",
            "offset": 0,
            "slot": "2",
            "type": "t_address"
          },
          {
            "astId": 1395,
            "contract": "contracts/JomEV.sol:JomEV",
            "label": "availability",
            "offset": 0,
            "slot": "3",
            "type": "t_array(t_bytes3)8_storage"
          },
          {
            "astId": 1397,
            "contract": "contracts/JomEV.sol:JomEV",
            "label": "isActive",
            "offset": 0,
            "slot": "4",
            "type": "t_bool"
          }
        ],
        "numberOfBytes": "160"
      },
      "t_uint256": {
        "encoding": "inplace",
        "label": "uint256",
        "numberOfBytes": "32"
      }
    }
  }
}