{
  "address": "0xb826CBD8aa01BD3Aa43594A21d5Aa7AD70802f41",
  "abi": [
    {
      "inputs": [],
      "stateMutability": "nonpayable",
      "type": "constructor"
    },
    {
      "anonymous": false,
      "inputs": [
        {
          "indexed": true,
          "internalType": "address",
          "name": "previousOwner",
          "type": "address"
        },
        {
          "indexed": true,
          "internalType": "address",
          "name": "newOwner",
          "type": "address"
        }
      ],
      "name": "OwnershipTransferred",
      "type": "event"
    },
    {
      "inputs": [
        {
          "internalType": "address",
          "name": "",
          "type": "address"
        }
      ],
      "name": "EVTokenBalance",
      "outputs": [
        {
          "internalType": "uint256",
          "name": "",
          "type": "uint256"
        }
      ],
      "stateMutability": "view",
      "type": "function"
    },
    {
      "inputs": [
        {
          "internalType": "address",
          "name": "NewOwner",
          "type": "address"
        }
      ],
      "name": "TransferOwner",
      "outputs": [],
      "stateMutability": "nonpayable",
      "type": "function"
    },
    {
      "inputs": [],
      "name": "evToken",
      "outputs": [
        {
          "internalType": "contract EVToken",
          "name": "",
          "type": "address"
        }
      ],
      "stateMutability": "view",
      "type": "function"
    },
    {
      "inputs": [],
      "name": "getEVTokenAddress",
      "outputs": [
        {
          "internalType": "address",
          "name": "",
          "type": "address"
        }
      ],
      "stateMutability": "view",
      "type": "function"
    },
    {
      "inputs": [
        {
          "internalType": "address",
          "name": "provider",
          "type": "address"
        }
      ],
      "name": "getEVTokenBalance",
      "outputs": [
        {
          "internalType": "uint256",
          "name": "",
          "type": "uint256"
        }
      ],
      "stateMutability": "view",
      "type": "function"
    },
    {
      "inputs": [],
      "name": "getEVTokenBalanceVault",
      "outputs": [
        {
          "internalType": "uint256",
          "name": "",
          "type": "uint256"
        }
      ],
      "stateMutability": "view",
      "type": "function"
    },
    {
      "inputs": [
        {
          "internalType": "address",
          "name": "_tokenAddress",
          "type": "address"
        }
      ],
      "name": "getTokenBalance",
      "outputs": [
        {
          "internalType": "uint256",
          "name": "",
          "type": "uint256"
        }
      ],
      "stateMutability": "view",
      "type": "function"
    },
    {
      "inputs": [
        {
          "internalType": "address",
          "name": "platform",
          "type": "address"
        },
        {
          "internalType": "address",
          "name": "tokenAddress",
          "type": "address"
        },
        {
          "internalType": "uint256",
          "name": "amount",
          "type": "uint256"
        }
      ],
      "name": "invest",
      "outputs": [],
      "stateMutability": "nonpayable",
      "type": "function"
    },
    {
      "inputs": [
        {
          "internalType": "address",
          "name": "Provider",
          "type": "address"
        },
        {
          "internalType": "uint256",
          "name": "amount_deposited",
          "type": "uint256"
        },
        {
          "internalType": "address",
          "name": "_tokenAddress",
          "type": "address"
        }
      ],
      "name": "mintEVToken",
      "outputs": [],
      "stateMutability": "nonpayable",
      "type": "function"
    },
    {
      "inputs": [],
      "name": "owner",
      "outputs": [
        {
          "internalType": "address",
          "name": "",
          "type": "address"
        }
      ],
      "stateMutability": "view",
      "type": "function"
    },
    {
      "inputs": [
        {
          "internalType": "address",
          "name": "",
          "type": "address"
        },
        {
          "internalType": "address",
          "name": "",
          "type": "address"
        }
      ],
      "name": "providerTokenDeposited",
      "outputs": [
        {
          "internalType": "uint256",
          "name": "",
          "type": "uint256"
        }
      ],
      "stateMutability": "view",
      "type": "function"
    },
    {
      "inputs": [],
      "name": "renounceOwnership",
      "outputs": [],
      "stateMutability": "nonpayable",
      "type": "function"
    },
    {
      "inputs": [
        {
          "internalType": "address",
          "name": "_evToken",
          "type": "address"
        }
      ],
      "name": "setEVTokenAddress",
      "outputs": [],
      "stateMutability": "nonpayable",
      "type": "function"
    },
    {
      "inputs": [
        {
          "internalType": "uint256",
          "name": "",
          "type": "uint256"
        }
      ],
      "name": "tokenAddress",
      "outputs": [
        {
          "internalType": "address",
          "name": "",
          "type": "address"
        }
      ],
      "stateMutability": "view",
      "type": "function"
    },
    {
      "inputs": [
        {
          "internalType": "address",
          "name": "",
          "type": "address"
        }
      ],
      "name": "tokenBalance",
      "outputs": [
        {
          "internalType": "uint256",
          "name": "",
          "type": "uint256"
        }
      ],
      "stateMutability": "view",
      "type": "function"
    },
    {
      "inputs": [
        {
          "internalType": "address",
          "name": "newOwner",
          "type": "address"
        }
      ],
      "name": "transferOwnership",
      "outputs": [],
      "stateMutability": "nonpayable",
      "type": "function"
    }
  ],
  "transactionHash": "0x63d80ad4db8493faac4aee91596889166dcbadfe69c33b2cc86910b1ef791b5e",
  "args": [],
  "numDeployments": 1,
  "solcInputHash": "aaea20b22bc1cebe03a7f1db691953c8",
  "bytecode": "0x6080604052606460035534801561001557600080fd5b5061001f33610024565b610074565b600080546001600160a01b038381166001600160a01b0319831681178455604051919092169283917f8be0079c531659141344cd1fd0a4f28419497f9722a3daafe3b4186f6b6457e09190a35050565b6108ff806100836000396000f3fe608060405234801561001057600080fd5b50600436106101005760003560e01c8063858ac4d811610097578063d17777d111610066578063d17777d11461024b578063d3ff1c201461025e578063eedc966a1461026f578063f2fde38b1461028f57600080fd5b8063858ac4d8146101d75780638da5cb5b146101ea5780639c36f9201461020f5780639e6b26ba1461022257600080fd5b80634772537f116100d35780634772537f1461017e5780634c89bfba146101a7578063653ac422146101bc578063715018a6146101cf57600080fd5b80631c0c607d14610105578063205a03ca14610120578063250638271461014b5780633aecd0e31461016b575b600080fd5b61010d6102a2565b6040519081526020015b60405180910390f35b61010d61012e36600461074f565b600560209081526000928352604080842090915290825290205481565b61010d61015936600461072e565b60046020526000908152604090205481565b61010d61017936600461072e565b610323565b61010d61018c36600461072e565b6001600160a01b031660009081526004602052604090205490565b6101ba6101b536600461072e565b610377565b005b6101ba6101ca366004610781565b6103c3565b6101ba6103f2565b6101ba6101e536600461072e565b610428565b6000546001600160a01b03165b6040516001600160a01b039091168152602001610117565b6101ba61021d3660046107bc565b61045e565b6101f76102303660046107f7565b6007602052600090815260409020546001600160a01b031681565b6001546101f7906001600160a01b031681565b6001546001600160a01b03166101f7565b61010d61027d36600461072e565b60066020526000908152604090205481565b6101ba61029d36600461072e565b610633565b6001546040516370a0823160e01b81523060048201526000916001600160a01b0316906370a082319060240160206040518083038186803b1580156102e657600080fd5b505afa1580156102fa573d6000803e3d6000fd5b505050506040513d601f19601f8201168201806040525081019061031e919061080f565b905090565b600080546001600160a01b031633146103575760405162461bcd60e51b815260040161034e90610827565b60405180910390fd5b506001600160a01b0381166000908152600660205260409020545b919050565b6000546001600160a01b031633146103a15760405162461bcd60e51b815260040161034e90610827565b600180546001600160a01b0319166001600160a01b0392909216919091179055565b6000546001600160a01b031633146103ed5760405162461bcd60e51b815260040161034e90610827565b505050565b6000546001600160a01b0316331461041c5760405162461bcd60e51b815260040161034e90610827565b61042660006106c7565b565b6000546001600160a01b031633146104525760405162461bcd60e51b815260040161034e90610827565b61045b81610633565b50565b6000546001600160a01b031633146104885760405162461bcd60e51b815260040161034e90610827565b6001600160a01b0380821660008181526006602090815260408083208790559387168252600581528382208383528152838220869055600280548352600790915292812080546001600160a01b031916909217909155815460019291906104f090849061085c565b909155505060035460009060649061050985600a610894565b6105139190610894565b61051d9190610874565b90506000606460035485605a6105339190610894565b61053d9190610894565b6105479190610874565b600154604051630f38ca0d60e31b81526001600160a01b038881166004830152602482018690529293509116906379c6506890604401600060405180830381600087803b15801561059757600080fd5b505af11580156105ab573d6000803e3d6000fd5b5050600154604051630f38ca0d60e31b8152306004820152602481018590526001600160a01b0390911692506379c650689150604401600060405180830381600087803b1580156105fb57600080fd5b505af115801561060f573d6000803e3d6000fd5b505050506001600160a01b0394909416600090815260046020526040902055505050565b6000546001600160a01b0316331461065d5760405162461bcd60e51b815260040161034e90610827565b6001600160a01b0381166106c25760405162461bcd60e51b815260206004820152602660248201527f4f776e61626c653a206e6577206f776e657220697320746865207a65726f206160448201526564647265737360d01b606482015260840161034e565b61045b815b600080546001600160a01b038381166001600160a01b0319831681178455604051919092169283917f8be0079c531659141344cd1fd0a4f28419497f9722a3daafe3b4186f6b6457e09190a35050565b80356001600160a01b038116811461037257600080fd5b60006020828403121561073f578081fd5b61074882610717565b9392505050565b60008060408385031215610761578081fd5b61076a83610717565b915061077860208401610717565b90509250929050565b600080600060608486031215610795578081fd5b61079e84610717565b92506107ac60208501610717565b9150604084013590509250925092565b6000806000606084860312156107d0578283fd5b6107d984610717565b9250602084013591506107ee60408501610717565b90509250925092565b600060208284031215610808578081fd5b5035919050565b600060208284031215610820578081fd5b5051919050565b6020808252818101527f4f776e61626c653a2063616c6c6572206973206e6f7420746865206f776e6572604082015260600190565b6000821982111561086f5761086f6108b3565b500190565b60008261088f57634e487b7160e01b81526012600452602481fd5b500490565b60008160001904831182151516156108ae576108ae6108b3565b500290565b634e487b7160e01b600052601160045260246000fdfea26469706673582212208cd90d55242ed767ed9a8fb103dd25ad7fc8f6287f5b58ca66e01492d5297b0c64736f6c63430008040033",
  "devdoc": {
    "kind": "dev",
    "methods": {
      "owner()": {
        "details": "Returns the address of the current owner."
      },
      "renounceOwnership()": {
        "details": "Leaves the contract without owner. It will not be possible to call `onlyOwner` functions anymore. Can only be called by the current owner. NOTE: Renouncing ownership will leave the contract without an owner, thereby removing any functionality that is only available to the owner."
      },
      "transferOwnership(address)": {
        "details": "Transfers ownership of the contract to a new account (`newOwner`). Can only be called by the current owner."
      }
    },
    "version": 1
  },
  "userdoc": {
    "kind": "user",
    "methods": {},
    "version": 1
  },
  "storageLayout": {
    "storage": [
      {
        "astId": 7,
        "contract": "contracts/Vault.sol:Vault",
        "label": "_owner",
        "offset": 0,
        "slot": "0",
        "type": "t_address"
      },
      {
        "astId": 2111,
        "contract": "contracts/Vault.sol:Vault",
        "label": "evToken",
        "offset": 0,
        "slot": "1",
        "type": "t_contract(EVToken)1341"
      },
      {
        "astId": 2113,
        "contract": "contracts/Vault.sol:Vault",
        "label": "tokenID",
        "offset": 0,
        "slot": "2",
        "type": "t_uint256"
      },
      {
        "astId": 2116,
        "contract": "contracts/Vault.sol:Vault",
        "label": "DISTRIBUTION_POINT",
        "offset": 0,
        "slot": "3",
        "type": "t_uint256"
      },
      {
        "astId": 2123,
        "contract": "contracts/Vault.sol:Vault",
        "label": "EVTokenBalance",
        "offset": 0,
        "slot": "4",
        "type": "t_mapping(t_address,t_uint256)"
      },
      {
        "astId": 2129,
        "contract": "contracts/Vault.sol:Vault",
        "label": "providerTokenDeposited",
        "offset": 0,
        "slot": "5",
        "type": "t_mapping(t_address,t_mapping(t_address,t_uint256))"
      },
      {
        "astId": 2133,
        "contract": "contracts/Vault.sol:Vault",
        "label": "tokenBalance",
        "offset": 0,
        "slot": "6",
        "type": "t_mapping(t_address,t_uint256)"
      },
      {
        "astId": 2137,
        "contract": "contracts/Vault.sol:Vault",
        "label": "tokenAddress",
        "offset": 0,
        "slot": "7",
        "type": "t_mapping(t_uint256,t_address)"
      },
      {
        "astId": 2141,
        "contract": "contracts/Vault.sol:Vault",
        "label": "AAVEassetAmount",
        "offset": 0,
        "slot": "8",
        "type": "t_mapping(t_address,t_uint256)"
      }
    ],
    "types": {
      "t_address": {
        "encoding": "inplace",
        "label": "address",
        "numberOfBytes": "20"
      },
      "t_contract(EVToken)1341": {
        "encoding": "inplace",
        "label": "contract EVToken",
        "numberOfBytes": "20"
      },
      "t_mapping(t_address,t_mapping(t_address,t_uint256))": {
        "encoding": "mapping",
        "key": "t_address",
        "label": "mapping(address => mapping(address => uint256))",
        "numberOfBytes": "32",
        "value": "t_mapping(t_address,t_uint256)"
      },
      "t_mapping(t_address,t_uint256)": {
        "encoding": "mapping",
        "key": "t_address",
        "label": "mapping(address => uint256)",
        "numberOfBytes": "32",
        "value": "t_uint256"
      },
      "t_mapping(t_uint256,t_address)": {
        "encoding": "mapping",
        "key": "t_uint256",
        "label": "mapping(uint256 => address)",
        "numberOfBytes": "32",
        "value": "t_address"
      },
      "t_uint256": {
        "encoding": "inplace",
        "label": "uint256",
        "numberOfBytes": "32"
      }
    }
  }
}