{
  "address": "0x307a6343A4ecd5dF8F113fb7f1A78D792F81f91C",
  "abi": [
    {
      "inputs": [],
      "stateMutability": "nonpayable",
      "type": "constructor"
    },
    {
      "anonymous": false,
      "inputs": [
        {
          "indexed": true,
          "internalType": "address",
          "name": "previousOwner",
          "type": "address"
        },
        {
          "indexed": true,
          "internalType": "address",
          "name": "newOwner",
          "type": "address"
        }
      ],
      "name": "OwnershipTransferred",
      "type": "event"
    },
    {
      "inputs": [],
      "name": "EVToken",
      "outputs": [
        {
          "internalType": "contract DummyToken",
          "name": "",
          "type": "address"
        }
      ],
      "stateMutability": "view",
      "type": "function"
    },
    {
      "inputs": [
        {
          "internalType": "address",
          "name": "",
          "type": "address"
        }
      ],
      "name": "EVTokenBalance",
      "outputs": [
        {
          "internalType": "uint256",
          "name": "",
          "type": "uint256"
        }
      ],
      "stateMutability": "view",
      "type": "function"
    },
    {
      "inputs": [
        {
          "internalType": "address",
          "name": "NewOwner",
          "type": "address"
        }
      ],
      "name": "TransferOwner",
      "outputs": [],
      "stateMutability": "nonpayable",
      "type": "function"
    },
    {
      "inputs": [
        {
          "internalType": "address",
          "name": "",
          "type": "address"
        },
        {
          "internalType": "address",
          "name": "",
          "type": "address"
        }
      ],
      "name": "UserTokenDeposited",
      "outputs": [
        {
          "internalType": "uint256",
          "name": "",
          "type": "uint256"
        }
      ],
      "stateMutability": "view",
      "type": "function"
    },
    {
      "inputs": [],
      "name": "getEVTokenBalance",
      "outputs": [
        {
          "internalType": "uint256",
          "name": "",
          "type": "uint256"
        }
      ],
      "stateMutability": "nonpayable",
      "type": "function"
    },
    {
      "inputs": [
        {
          "internalType": "address",
          "name": "tokenAddress",
          "type": "address"
        }
      ],
      "name": "getTokenBalance",
      "outputs": [
        {
          "internalType": "uint256",
          "name": "",
          "type": "uint256"
        }
      ],
      "stateMutability": "view",
      "type": "function"
    },
    {
      "inputs": [
        {
          "internalType": "address",
          "name": "platform",
          "type": "address"
        },
        {
          "internalType": "address",
          "name": "tokenAddress",
          "type": "address"
        },
        {
          "internalType": "uint256",
          "name": "amount",
          "type": "uint256"
        }
      ],
      "name": "invest",
      "outputs": [],
      "stateMutability": "nonpayable",
      "type": "function"
    },
    {
      "inputs": [
        {
          "internalType": "address",
          "name": "User",
          "type": "address"
        },
        {
          "internalType": "uint256",
          "name": "amount_deposited",
          "type": "uint256"
        },
        {
          "internalType": "address",
          "name": "tokenAddress",
          "type": "address"
        }
      ],
      "name": "mintEVToken",
      "outputs": [],
      "stateMutability": "nonpayable",
      "type": "function"
    },
    {
      "inputs": [],
      "name": "owner",
      "outputs": [
        {
          "internalType": "address",
          "name": "",
          "type": "address"
        }
      ],
      "stateMutability": "view",
      "type": "function"
    },
    {
      "inputs": [],
      "name": "renounceOwnership",
      "outputs": [],
      "stateMutability": "nonpayable",
      "type": "function"
    },
    {
      "inputs": [
        {
          "internalType": "address",
          "name": "_evToken",
          "type": "address"
        }
      ],
      "name": "setEVTokenAddress",
      "outputs": [],
      "stateMutability": "nonpayable",
      "type": "function"
    },
    {
      "inputs": [
        {
          "internalType": "address",
          "name": "",
          "type": "address"
        }
      ],
      "name": "tokenBalance",
      "outputs": [
        {
          "internalType": "uint256",
          "name": "",
          "type": "uint256"
        }
      ],
      "stateMutability": "view",
      "type": "function"
    },
    {
      "inputs": [
        {
          "internalType": "address",
          "name": "newOwner",
          "type": "address"
        }
      ],
      "name": "transferOwnership",
      "outputs": [],
      "stateMutability": "nonpayable",
      "type": "function"
    }
  ],
  "transactionHash": "0xcc74d16dcc6f1bb7895365fd6cb4ab5adf3fba541cbe9dc3968500a8eb78c7ec",
  "args": [],
  "numDeployments": 1,
  "solcInputHash": "58dbf4bf667bf9eae51a2560729f498f",
  "bytecode": "0x6080604052606460025534801561001557600080fd5b5061001f33610024565b610074565b600080546001600160a01b038381166001600160a01b0319831681178455604051919092169283917f8be0079c531659141344cd1fd0a4f28419497f9722a3daafe3b4186f6b6457e09190a35050565b610823806100836000396000f3fe608060405234801561001057600080fd5b50600436106100cf5760003560e01c8063858ac4d81161008c5780639c36f920116100665780639c36f9201461019d5780639dd03c30146101b0578063eedc966a146101db578063f2fde38b146101fb57600080fd5b8063858ac4d8146101525780638da5cb5b14610165578063982457f51461018a57600080fd5b806325063827146100d45780633aecd0e3146101075780634c89bfba1461011a57806355b921891461012f578063653ac42214610137578063715018a61461014a575b600080fd5b6100f46100e236600461068c565b60036020526000908152604090205481565b6040519081526020015b60405180910390f35b6100f461011536600461068c565b61020e565b61012d61012836600461068c565b610262565b005b6100f46102ae565b61012d6101453660046106df565b610359565b61012d610388565b61012d61016036600461068c565b6103be565b6000546001600160a01b03165b6040516001600160a01b0390911681526020016100fe565b600154610172906001600160a01b031681565b61012d6101ab36600461071a565b6103f4565b6100f46101be3660046106ad565b600460209081526000928352604080842090915290825290205481565b6100f46101e936600461068c565b60056020526000908152604090205481565b61012d61020936600461068c565b610591565b600080546001600160a01b031633146102425760405162461bcd60e51b81526004016102399061076d565b60405180910390fd5b506001600160a01b0381166000908152600560205260409020545b919050565b6000546001600160a01b0316331461028c5760405162461bcd60e51b81526004016102399061076d565b600180546001600160a01b0319166001600160a01b0392909216919091179055565b600080546001600160a01b031633146102d95760405162461bcd60e51b81526004016102399061076d565b6001546040516370a0823160e01b81523060048201526001600160a01b03909116906370a082319060240160206040518083038186803b15801561031c57600080fd5b505afa158015610330573d6000803e3d6000fd5b505050506040513d601f19601f820116820180604052508101906103549190610755565b905090565b6000546001600160a01b031633146103835760405162461bcd60e51b81526004016102399061076d565b505050565b6000546001600160a01b031633146103b25760405162461bcd60e51b81526004016102399061076d565b6103bc6000610625565b565b6000546001600160a01b031633146103e85760405162461bcd60e51b81526004016102399061076d565b6103f181610591565b50565b6000546001600160a01b0316331461041e5760405162461bcd60e51b81526004016102399061076d565b6001600160a01b0380821660008181526005602090815260408083208790559387168252600481528382209282529190915290812083905560025460649061046785600a6107c2565b61047191906107c2565b61047b91906107a2565b90506000606460025485605a61049191906107c2565b61049b91906107c2565b6104a591906107a2565b600154604051630f38ca0d60e31b81526001600160a01b038881166004830152602482018690529293509116906379c6506890604401600060405180830381600087803b1580156104f557600080fd5b505af1158015610509573d6000803e3d6000fd5b5050600154604051630f38ca0d60e31b8152306004820152602481018590526001600160a01b0390911692506379c650689150604401600060405180830381600087803b15801561055957600080fd5b505af115801561056d573d6000803e3d6000fd5b505050506001600160a01b0394909416600090815260036020526040902055505050565b6000546001600160a01b031633146105bb5760405162461bcd60e51b81526004016102399061076d565b6001600160a01b0381166106205760405162461bcd60e51b815260206004820152602660248201527f4f776e61626c653a206e6577206f776e657220697320746865207a65726f206160448201526564647265737360d01b6064820152608401610239565b6103f1815b600080546001600160a01b038381166001600160a01b0319831681178455604051919092169283917f8be0079c531659141344cd1fd0a4f28419497f9722a3daafe3b4186f6b6457e09190a35050565b80356001600160a01b038116811461025d57600080fd5b60006020828403121561069d578081fd5b6106a682610675565b9392505050565b600080604083850312156106bf578081fd5b6106c883610675565b91506106d660208401610675565b90509250929050565b6000806000606084860312156106f3578081fd5b6106fc84610675565b925061070a60208501610675565b9150604084013590509250925092565b60008060006060848603121561072e578283fd5b61073784610675565b92506020840135915061074c60408501610675565b90509250925092565b600060208284031215610766578081fd5b5051919050565b6020808252818101527f4f776e61626c653a2063616c6c6572206973206e6f7420746865206f776e6572604082015260600190565b6000826107bd57634e487b7160e01b81526012600452602481fd5b500490565b60008160001904831182151516156107e857634e487b7160e01b81526011600452602481fd5b50029056fea26469706673582212200852b88f3d00e264d0aad4cf648fc703119d17702e50fe7eb7c95b7198785bd664736f6c63430008040033",
  "devdoc": {
    "kind": "dev",
    "methods": {
      "owner()": {
        "details": "Returns the address of the current owner."
      },
      "renounceOwnership()": {
        "details": "Leaves the contract without owner. It will not be possible to call `onlyOwner` functions anymore. Can only be called by the current owner. NOTE: Renouncing ownership will leave the contract without an owner, thereby removing any functionality that is only available to the owner."
      },
      "transferOwnership(address)": {
        "details": "Transfers ownership of the contract to a new account (`newOwner`). Can only be called by the current owner."
      }
    },
    "version": 1
  },
  "userdoc": {
    "kind": "user",
    "methods": {},
    "version": 1
  },
  "storageLayout": {
    "storage": [
      {
        "astId": 7,
        "contract": "contracts/Vault.sol:Vault",
        "label": "_owner",
        "offset": 0,
        "slot": "0",
        "type": "t_address"
      },
      {
        "astId": 2041,
        "contract": "contracts/Vault.sol:Vault",
        "label": "EVToken",
        "offset": 0,
        "slot": "1",
        "type": "t_contract(DummyToken)1271"
      },
      {
        "astId": 2044,
        "contract": "contracts/Vault.sol:Vault",
        "label": "DISTRIBUTION_POINT",
        "offset": 0,
        "slot": "2",
        "type": "t_uint256"
      },
      {
        "astId": 2048,
        "contract": "contracts/Vault.sol:Vault",
        "label": "EVTokenBalance",
        "offset": 0,
        "slot": "3",
        "type": "t_mapping(t_address,t_uint256)"
      },
      {
        "astId": 2054,
        "contract": "contracts/Vault.sol:Vault",
        "label": "UserTokenDeposited",
        "offset": 0,
        "slot": "4",
        "type": "t_mapping(t_address,t_mapping(t_address,t_uint256))"
      },
      {
        "astId": 2058,
        "contract": "contracts/Vault.sol:Vault",
        "label": "tokenBalance",
        "offset": 0,
        "slot": "5",
        "type": "t_mapping(t_address,t_uint256)"
      }
    ],
    "types": {
      "t_address": {
        "encoding": "inplace",
        "label": "address",
        "numberOfBytes": "20"
      },
      "t_contract(DummyToken)1271": {
        "encoding": "inplace",
        "label": "contract DummyToken",
        "numberOfBytes": "20"
      },
      "t_mapping(t_address,t_mapping(t_address,t_uint256))": {
        "encoding": "mapping",
        "key": "t_address",
        "label": "mapping(address => mapping(address => uint256))",
        "numberOfBytes": "32",
        "value": "t_mapping(t_address,t_uint256)"
      },
      "t_mapping(t_address,t_uint256)": {
        "encoding": "mapping",
        "key": "t_address",
        "label": "mapping(address => uint256)",
        "numberOfBytes": "32",
        "value": "t_uint256"
      },
      "t_uint256": {
        "encoding": "inplace",
        "label": "uint256",
        "numberOfBytes": "32"
      }
    }
  }
}